:020000040800F2
:10000000F01E0020295200082D5100082F51000831
:10001000315100083351000835510008000000003C
:10002000000000000000000000000000D72C0008C5
:100030003751000800000000912C0008112700082B
:100040004D520008515200085552000859520008FC
:100050005D520008615200086552000869520008AC
:100060006D5200087152000875520008795200085C
:100070007D5200088152000885520008895200080C
:100080008D520008915200089552000899520008BC
:100090009D520008A1520008A5520008A95200086C
:1000A000AD52000839510008B1520008B55200089D
:1000B000B9520008BD5200083F510008C152000863
:1000C000C5520008C9520008CD520008D15200089C
:1000D000D552000845510008D9520008DD520008E9
:1000E000E1520008E5520008E952000840F0200003
:1000F00070472DE9F14FB0B0924604910DF14201E5
:100100003A9A2B9199464A7000200AE01AF8011B8E
:100110000498309A90470028049000F043860D9888
:10012000401C0D909AF8000050B12528EED1002215
:1001300000210792089109920A910B920C9104E018
:100140000D9800F031BE41F001011AF8010F20288E
:10015000F9D023280CD02B2804D02D2805D0302806
:1001600009D00BE041F00201EFE741F00401ECE7B8
:1001700041F00801E9E741F01001E6E72A280FD134
:10018000D9F8002052F8040BC9F8002000280F907D
:1001900003D540420F9041F004010AF1010A14E036
:1001A0000F92DFF80C0C0AE00F9C844205DA04EB96
:1001B000840302EB4302303A0F920AF1010A9AF8E3
:1001C0000020A2F130030A2BEED39AF800202E2A49
:1001D00003D04FF0FF300E9029E01AF8010F2A28C3
:1001E00009D1D9F8002052F8040BC9F800200E906C
:1001F0000AF1010A1BE02D280CBF0AF1010A0020B8
:1002000000220E92DFF8A85B0BE040B90E9BAB42D8
:1002100005DA03EB830402EB4402303A0E920AF152
:10022000010A9AF80020A2F130030A2BEDD3ADF8B1
:1002300040100FF680309AF8001000F0D9FE08B197
:100240001AF8010B8DF842009DF84200682805D18C
:100250009AF8001068290CD1622006E06C2804BFCF
:100260009AF800106C2904D171208DF842000AF12F
:10027000010A12AA06921AF801BBBBF125002CD084
:100280001C3800F09781001F022840F29381133838
:1002900000F0BA84093800F08D81801E00F04F858F
:1002A000401E00F0FC84401E022840F28381001FA3
:1002B00000F0F584401F00F0F280401E00F0A4849E
:1002C000401E00F0DA80C01E0ED0801E00F09C841C
:1002D000C01E00F0998400F03DBD01222521079247
:1002E0008DF8481000F042BDD9F8000050F8044BDA
:1002F000C9F80000002C059440F0AB802B99487899
:10030000002800F0A1804FF0FF340FF6B02000F07D
:100310007FFE241A40F0468500F028BD01236A467E
:1003200002A9304600F00CFE002840F03B85641E18
:10033000F4D13096079C12AE74B1309F16F8011BB1
:100340000498B8470028049000F02C850D98401CB4
:10035000641E0D90F2D130970A9C3021002C8DF84C
:1003600000100CDD309E01236A4602A9304600F0E1
:10037000E7FD002840F01685641EF4D13096059EF6
:10038000089C74B1309F16F8011B0498B8470028E8
:10039000049000F007850D98401C641E0D90F2D16A
:1003A00030970B9C3021002C8DF800100CDD309E16
:1003B00001236A4602A9304600F0C2FD002840F041
:1003C000F184641EF4D1309605980899099C46186A
:1003D00074B1309F16F8011B0498B84700280490A8
:1003E00000F0E0840D98401C641E0D90F2D130970F
:1003F0000C9C3021002C8DF800100CDD309E012368
:100400006A4602A9304600F09BFD002840F0CA84ED
:10041000641EF4D130969DF8400041077FF582AE0E
:100420002020002D8DF800007FF77CAE309C01234A
:100430006A4602A9204600F083FD002840F0B284FD
:100440006D1EF4D130946DE60FF65430059000F037
:100450008DBC0E9D002D04D5204600F0F9FD04460C
:1004600008E02A460021204600F00EFE002814BFB6
:10047000041B2C46089400F079BCD9F8001051F800
:10048000040BC9F8001020F00002002121F0FF3316
:10049000CDE9022312AC0594782100F04CBC2B99D5
:1004A000487820B14FF0FF340FF6C4202FE79DF8B5
:1004B0004200622860D0682817D06A283FD06C2894
:1004C00006D0712847D074282CD07A281DD062E03D
:1004D000D9F8001051F8040BC9F80010002866D1B3
:1004E0004FF0FF340FF6A02011E7D9F8001051F8B3
:1004F000040BC9F8001020B94FF0FF340FF6882024
:1005000005E70D99018000F031BCD9F8001051F8D1
:10051000040BC9F80010002849D14FF0FF340FF642
:100520006820F4E6D9F8001051F8040BC9F800105F
:1005300000283CD14FF0FF340FF64C20E7E6D9F805
:10054000001051F8040BC9F8001080B94FF0FF34C7
:100550000FF63420DBE6D9F8001051F8040BC9F887
:10056000001020B94FF0FF340FF61C20CFE60D9A93
:10057000D317C0E90023F9E3D9F8001051F8040BB0
:10058000C9F8001020B94FF0FF340FF6FC10BEE69A
:100590000D990170EAE3D9F8001051F8040BC9F87D
:1005A000001020B94FF0FF340FF6DC10AFE60D99C4
:1005B0000160DBE39DF842004C2807BFD9F800102A
:1005C000CA1DD9F80000C21D22F00702C9F8002098
:1005D000D2E900010832C9F80020CDE90201C80FB4
:1005E00002D007982D210AE0BDF84010880702D5F7
:1005F00007982B2103E0C80705D50798202112AAE8
:100600001154401C079012A807994BF0200300EBEF
:10061000010CDDE90201CDE92C01612BCDF814C0FC
:1006200021AC0BD00E98002848BF062105D404BF8A
:100630004BF02000672801D101210E91DDE902670E
:100640007B0043EAD6735A15DB174FF0FF30834225
:1006500008BF824210D13F0347EA16573603002FE6
:1006600008BF002E08D0ABF1610503211A2D0891B7
:1006700018D30FF6341110E0DDE902014A005215DB
:1006800012F1010F11D108030FD1ABF16105032164
:100690001A2D08911FD30FF618110322604600F09F
:1006A0001FFD63E30FF6FC01F7E7DDE902016A468F
:1006B00000F022FDCDE902014BF02000612811D1AC
:1006C000059830220270811C0591BBF1610F0CBFAF
:1006D0007821582102E00FF6D401DEE74170079837
:1006E000801C0790DDE9020120F0000231F0004398
:1006F00008BF002A02D10026002542E14BF0200865
:10070000B8F1610F40F093800E98002847BF212177
:100710000191401C0190019EDDE92C01761C002214
:100720000023DDE9024500F01FFD38BF85F00045DC
:1007300000988DF88420001F002E00900DF1850791
:1007400032DD204629460022002300F027FD2BD26F
:100750001C2200F03DFD04460D4600F0D7FDF61FBB
:10076000002E804609DD00F0EDFD02460B462046D6
:10077000294600F0AFFE04460D46F81D0721B8F1EA
:10078000000F0CDD491E5EBF08F00F0200F8012DBE
:100790004FEA2818F3D502E0002200F8012D491E87
:1007A000FAD5C71D002ECCDC0DF185003F1A01984B
:1007B0000DF185043E468742C8BF0646002E2FD461
:1007C000BE4206DA0DF18500815D0829A8BF0F2021
:1007D00000DA0020324621A98D1800E0761E15F8B7
:1007E0000139521E8342F9D00F2804D10DF1850141
:1007F000885C401C8854002A04D50098001D21AC58
:10080000761C0090701E0BD421180B783033DAB2AE
:100810003A2AA4BF5B443A3B401E01F80139F4D5A3
:100820000E99002940F1AC80701E0E90A8E000994E
:10083000DFF8FC2647F29750414391FBF2F2009219
:10084000DDE92C45C2F10702002A25F0004504DD50
:100850002046294600F049FB0BE052420020DFF819
:10086000D41600F042FB02460B462046294600F013
:10087000A3FE04460D46B8F1660F06BF009E0A3679
:1008800006260E983618142EC8BF142630208DF870
:1008900084000DF18507002E34DD2046294600F046
:1008A000AFFF01460A4607F1080C04200A27B2FBF5
:1008B000F7FE0EEB8E03A2EB430230320CF8012C54
:1008C0000A22BEFBF2F202EB8203AEEB43033033AB
:1008D000401E0CF8023DE9D1083E002E0CF108073D
:1008E000D9DD084600F09EFF02460B462046294609
:1008F00000F0F0FD0022DFF8403600F0A1FF0446D2
:100900000D46CAE70DF185003F1A0DF1850404E09C
:100910000098401E7F1E0090641C20783028F7D07D
:10092000B8F1660F02D1009E761C04E0B8F1650FA5
:100930000CBF012600260E983618B742B8BF7E1E9F
:10094000002E1DD4BE4204DAA05D3428C8BF392071
:1009500000DC30203246611E8D1800E0761E15F84E
:100960000179521E8742F9D0392802D1A05C401C7F
:10097000A054002A04D50098401C0C46761C009018
:10098000009D01F033F8406A0778DDF8388030B216
:10099000002802DC01260FF21C644BF020006628C0
:1009A00008BF6D1C16D0672845D128B210F1040F7E
:1009B00047DB404545DA9DF840106D1C080703D41D
:1009C00030B24045D8BF804628B2B8EB000848BFD7
:1009D0004FF000080FFA85FBBBF1000F00F3B38066
:1009E0000898411C0891302205990A54B8F1000F6B
:1009F00003DC9DF84010080704D50898411C0891B5
:100A000005990F5418EB0B0FB8BFC8F100052DB2B4
:100A10006842454432B20B909542B8BF2E46059BC2
:100A2000089836B2099632462146184400F058FB21
:100A3000AD1B0C95D1E0BBF1610F17D14FF0700BDE
:100A400019E030B2404504DA9DF840100A0758BF5B
:100A50008046B8F1010848BF4FF00008BBF1670FAE
:100A600014BF4FF0450B4FF0650B04E0BBF1410F95
:100A700008BF4FF0500B0898411C0891B8F1000FC7
:100A8000059914F8012B0A5403DC9DF8401008075F
:100A90001AD50898411C0891B8F1000F05990F5418
:100AA00012DD761E30B28045B8BF46460598089BD9
:100AB00032B22146184400F013FB089836B23018C1
:100AC0000890A8EB06000B9005980899014428B2FD
:100AD000002881F800B003D42B204870891C04E062
:100AE0002D224A700546891C6D4200202CAA0AE07E
:100AF0002B460A2593FBF5F505EB8504A3EB440390
:100B000002F8013B401C2DB2002DF1DC012806DC6F
:100B10004BF02002652A04BF302201F8012B002887
:100B20002CAB08D1302001F8010B06E0401E1A5C06
:100B3000303201F8012B0028F8DC059A089810449F
:100B4000091A099149E031B228B281421CDA059BA9
:100B5000089832B22146184400F0C2FA089936B219
:100B600071180891ABEB0600B8F1000F0B9003DC95
:100B70009DF84000020704D5059847540999491C7F
:100B80000991CDF8308028E0059B08982AB22146CB
:100B9000184400F0A5FA0898761B5844B8F1000FE5
:100BA000089003DC9DF840100A0703D5411C08910A
:100BB00005990F5430B28045B8BF46460598089B4A
:100BC00032B204EB0B01184400F08AFA089836B2EE
:100BD00030180890A8EB06000B909DF8400000F03C
:100BE0001400102840F0C280079A08980B998218C8
:100BF00009988A1882180C980F998018884280F2F8
:100C0000B580081A0A90B1E09DF84200622808D029
:100C100068280ED06A2814D06C281FD0712810D0F4
:100C20001CE0D9F8001051F8040BC9F80010C0B24C
:100C30001AE0D9F8001051F8040BC9F8001080B27E
:100C400012E0D9F80000C21D22F00702C9F8002006
:100C5000D2E900010832C9F8002006E0D9F80010F6
:100C600051F8040BC9F800100021CDE902019DF8EC
:100C7000400002075AD5DDE90201002908BF00281B
:100C800054D04BF02002782A50D1079912A8302373
:100C90004354491C4A1C079200F801B046E09DF8F5
:100CA0004200622808D068280ED06A2814D06C2828
:100CB0001FD0712810D01CE0D9F8001051F8040B97
:100CC000C9F8001040B21AE0D9F8001051F8040B2E
:100CD000C9F8001000B212E0D9F80000C21D22F0DD
:100CE0000702C9F80020D2E900010832C9F8002043
:100CF00006E0D9F8001051F8040BC9F80010C1172C
:100D0000CDE90201002902D507982D220AE0BDF89D
:100D10004000810702D507982B2203E0C00705D5C4
:100D20000798202212A90A54401C079012A807997C
:100D300001440591594602A800F04EF816E0012042
:100D40000790D9F8001051F8040BC9F800108DF87D
:100D500048000BE001222521BBF1000F07928DF81E
:100D6000481003D0022007908DF849B00F9D0798D6
:100D70000A992D1A08986D1A0B992D1A09986D1A4F
:100D80000C992D1A9DF840006D1A41073FF5D2AA23
:100D90002020002D8DF800007FF7CCAA309E2C4635
:100DA000FFF7BCBA4FF0FF3031B0BDE8F08F000064
:100DB000CBCCCC0C686A6C747A4C00007072696E93
:100DC00074665F733A2062616420257320617267E4
:100DD000756D656E740000002DE9FE4C06468B466D
:100DE000376958466F2808BF082205D0FFF77EF9FB
:100DF000782814BF0A221022D6E900013C250446B7
:100E00008A46BBF1640F18BFBBF1690F04D10029FA
:100E100002D564426AEB4A0ABAF1000F08BF002CFF
:100E20000CD1306B50B9082A3BD196F8381008071E
:100E300037D530213B2587F83B1032E08DF800B0E4
:100E40009346204651465A46002300F0D3FD3032E7
:100E5000D0B26D1E3A2801950DDA7A5520465146DA
:100E60005A46002300F0C6FD04465FEA010A08BFA7
:100E7000002C05D108E09DF800001218513AECE76B
:100E8000F16878198142DCD3BBF1080F09D196F8DB
:100E90003800010705D5785D302802D06D1E30205E
:100EA0007855C5F13C02306BB26179198242F1602C
:100EB00007DA318F821A4FF6EF70014032623187C4
:100EC00010E000280ED596F8380000F01400102825
:100ED00008D1736B7069316A1B1A5B1A9B1A002B5D
:100EE000C8BF336203B0BDE8F08C2DE9D04306469D
:100EF0000F4614464FF00008DFF8409012E0E0077C
:100F000007D542464B463046394600F099FC064626
:100F10000F464046494642464B4600F091FC64105D
:100F200080468946002CEAD130463946BDE8D08358
:100F3000A08601000000F03F84D7974100002440C4
:100F4000F8B505460E4617461C4600205CB117F85A
:100F5000011BB068A847B06030B1F06A401CF06275
:100F60000020641EF3D1F2BD4FF0FF30F2BD00004F
:100F70007072696E74665F733A20256E20646973BF
:100F8000616C6C6F776564007072696E74663A208C
:100F900062616420256E20617267756D656E7400F4
:100FA000000000006E616E004E414E00696E6600EA
:100FB000494E4600300030B50168846842184168E7
:100FC00002EB5103C90703D54C4401E0491C08D189
:100FD0009A4218BF12F9011B01D10C3030BD12F832
:100FE000015B002904F8015BF0D4491EF7D5EFE757
:100FF000C9B202788A421AB11CBF10F8012FF9E772
:1010000018BF0020704703685A1C026019707047AF
:1010100080B500B906A005490B681BB1222200214A
:10102000984701E000F0FEFD222002BDE81A0020F2
:10103000636F6E73747261696E742068616E646C44
:1010400065723A20626164206D6573736167650043
:1010500000F10103810704D010F8011B820781B160
:10106000FAD10268A2F10131914311F0803104BF3D
:1010700050F8042FF6E709BAB1FA81F100EBD1007C
:10108000401CC01A70472E00C9B2830706D0521EFA
:1010900022D310F8013B9942F7D11FE0083A13D34D
:1010A00002F1040241EA012141EA014150F8043B06
:1010B000121F21BF4B40A3F1013C2CEA030C1CF092
:1010C000803FF3D0C9B2001F083210F8013B521E16
:1010D00028BF91EA030FF8D818BF0120401E7047BF
:1010E0004AB1000011F8013B521E00F8013B1CBF41
:1010F00011F8013BF8E7704710B5144600F002F80C
:10110000226010BDC1F30A5343B14A0012F5001F1B
:1011100028D2A3F2FE32A1EB0251704750EA410CF3
:1011200020D001F0004C31EA0C01B1FA81F204BF89
:10113000B0FA80F3D2180B3AB2F120032CBF00FAB8
:1011400003F1914041EA0C013EBFC2F1200C20FAAC
:101150000CF319439040524240F2FD33D21A01EB96
:10116000035170470022704741EA030C50EA4C0CCF
:1011700052EA0C0C4FF4001C09D307D01CEB410FB2
:101180009CBF1CEB430F8B4208BF824270471CEB95
:10119000430FFBD8994208BF9042704741EA030CC5
:1011A00050EA4C0C52EA0C0C4FF4001C09D307D047
:1011B0001CEB410F9CBF1CEB430F994208BF9042B0
:1011C00070471CEB410FFBD88B4208BF824270472F
:1011D000124254D440F2FF7C1CEA11530FD06345F5
:1011E00031D09B1863453CBF01EB0251704701F0C1
:1011F000004141EA0C510020AFF30080704750EAF3
:10120000410320D001F0004C91EA0C011CD0B1FA4E
:1012100081F30B3B9A420DD9D21A994051EA0C0145
:10122000C3F1200C20FA0CFC61449840531C40F29E
:10123000FF7CD7E7914041EA0C01C2F1200C20FA73
:101240000CF3194390407047B0FA80F31533202B0C
:10125000E0D3202AEED3203A203B9A4209D9D21A71
:1012600000FA03F141EA0C010020531C40F2FF7C1C
:10127000B8E700FA02F141EA0C010020704752423F
:1012800040F2FF7C1CEA11530DD06345DBD0B2EB7A
:10129000030C3CBFA1EB025170470CF1010221EAA3
:1012A000035141F4801150EA410CCCD001F0004CC4
:1012B000352A27DC30B481EA0C01B2F1200309DAC7
:1012C000C2F12003044601FA03F5D0402843D1407F
:1012D0009C400CE0C3F12002450020FA03F418BF43
:1012E00044F0010421FA03F091400C43002174F111
:1012F000004550F1000051EB0C01244230BC7FF45A
:101300007BAF70476146002076E70000C1F30A53C7
:1013100040F21E42D31A0CDDCA0283F3070342EAED
:10132000505242F00042DA4002EBE17282EAE17090
:1013300070476FEAE17203F2E13008B182F00040D9
:101340007047000010F0004160B148BF4042B0FA61
:1013500080F29040D21CC2F5846241EA025202EB54
:10136000D021400570470000841A71EB030604D2B7
:101370006E40001BB141121973414FF4001C1CEB6D
:10138000410F34BF7CEB430683E00C0DA4EB1356F6
:10139000362E00F37C80012E45EAC32341DC43EA6C
:1013A000525312BFD20292025B08240545EAC121C2
:1013B00041EA5051D2EBC020994125D407D1B0FA6F
:1013C00080F610FA06F162D00020203608E0B1FA6B
:1013D00081F6B140C6F1200220FA02F21143B0407A
:1013E0004FEAF474B4EB465434F001064FEA740447
:1013F0000AD8D6F50016760D04F00044F04061FAE4
:1014000006F25040F1404840C00A40EA415021F005
:10141000004128BF5FEA500550F1000044EBD121A4
:1014200035E0DB0A45EAC121C90AB6F120050EDD27
:1014300042EA0242120CC5F1200603FA06F6EB401E
:1014400042EA06056D42984161F100010DE062FA41
:1014500006F5F240554063FA06FC82EA0C02F340BE
:101460005A406D42904161EB030111F4801F05D198
:10147000641E620502D06D004041494121F4801193
:10148000430875F1004350F1000041EB045170BC7A
:1014900070471CEB410F15D223F0004352EA43067C
:1014A0000BD04FEA4C0CBCEB410F04D80C0D661E60
:1014B000342EB7DDEBE7801A994150EA410608BFA8
:1014C0000021E4E708BF1CEB430F28BF6FF00001C9
:1014D000DDE7000070B491EA030F4FF000457FF59F
:1014E00043AF6B40841A71EB030603D2001BB1417A
:1014F000121973414FF4001C1CEB410F34BF7CEBFD
:10150000430442E00C0DA4EB1356352E4FDC45EAA4
:10151000C323DB0A45EAC121C912B6F120050DDD5E
:1015200063FA05F6EB4086EA0305124218BF45F060
:101530000105C01851F100010CD213E062FA06F562
:10154000F2405540F3415A40B340F3405A408018AE
:10155000594107D349085FEA30005FEA350528BFE3
:1015600045F0010501F58011420875F1004250F186
:10157000000041EB04514E0016F5001F70BC38BF4F
:1015800070470020090D090570471CEB410F10D270
:1015900052EA43060BD0BCEB410F05D80C0DAB4310
:1015A000661E342EB6DD02E0AB438018594170BC94
:1015B000704770BC70470000F0B540F2FF7581EADB
:1015C000030C0CF0004C15EA11541DBF15EA13571B
:1015D000AC42AF42E5E0BC41C1F31301C3F31303D6
:1015E000801A994143F4801304D2641E00184941C3
:1015F00080185941C90241EA5051B1FBF3F603FB8F
:101600001611A2FB0675D7EBC020A94102D2761EA7
:1016100080185941C90241EA5051B1FBF3FE03FB66
:101620001E11A2FB0E75D7EBC020A94103D2AEF16B
:10163000010E80185941890241EA9051760546EA27
:101640008E2EB1FBF3F603FB1611A2FB0675D7EB4A
:101650008020A94102D2761E80185941C90241EA70
:1016600050514EEA060EB1FBF3F603FB1611A2FB36
:101670000675D7EBC020A94102D2761E80185941C9
:10168000C90241EA5051B1FBF3F703FB1711A2FB6A
:101690000735D3EBC020A94167F100070CBF00421A
:1016A00047F0010766F3D5274FEA1E31B80814F555
:1016B000806412DDBD0775F1004250EB0E5051EB16
:1016C000045111F5801F5CBF41EA0C01F0BD4CF0E4
:1016D0007F6141F0E0410020F0BDBD076D0840EAA8
:1016E0000E5041F48011D4F10104B4F120060ADA5D
:1016F000C4F120060200E04001FA06F3E14018437D
:10170000B24015430EE0342C13DCC6F1200445EA48
:1017100040056D0820FA06F2154321FA06F0A140B3
:101720000D43002175F1004250F1000051EB0C0116
:10173000F0BD00205FEA0C01F0BDCFB992185B410B
:10174000B3FA83F704BFB2FA82F6BF190B3FB7F1C1
:1017500020062FBF02FA06F3BB40C7F1200622FA8B
:1017600006F638BF3343BA401CB1E419641E33E7B0
:101770007F4231F00041B1FA81F404BFB0FA80F643
:10178000A4190B3CB4F120062FBF00FA06F1A140CA
:10179000C4F1200620FA06F638BF3143A0403C1BB6
:1017A0001AE7AC421ABF05EA1357AF4212E050EAFB
:1017B00041061CBF52EA4306BFE750EA41073046E4
:1017C00061461CBF41EA0551F0BD52EA430C08BF17
:1017D000C143F0BD00204FF4001616EB410F98BF37
:1017E00016EB430F08BF16EB410F24BFC14305E0C2
:1017F00016EB430F0CBF61464CEA0551F0BD0000EB
:10180000400D40F21E4C40EAC120BCEB115C40F0A0
:10181000004003D48CF30701C84070476FEAE170C1
:101820007047000050B1B0FA80F18840C91CC1F582
:101830008461090501EBD0214005704701467047DE
:1018400030B540F2FF7C1CEA11541DBF1CEA135551
:10185000644565453FE0641981EA030C6FF35F530B
:101860000CF0004C43F48013C90241F0004141EAFE
:10187000505EC5021100A5FB020200284FF00000D7
:10188000EEFB01204FF00001E3FB052118BF42F001
:101890000102401800214941E3FB0E01A4F58064D8
:1018A0000D0302D292184041494154F1010470DD08
:1018B000450872F1004250F1000051EB0451A1F5CE
:1018C000801102D441EA0C0130BD40F2FF7E4CEAA7
:1018D0000E51002030BD0CEA1355644518BF654514
:1018E00081EA030C0CF0004C41D050EA410E1CBFC1
:1018F00052EA430E02E06146002030BD24422C44EF
:101900001BD15FEA050EF6D0090302BF0146002095
:10191000AEF1140EB1FA81F5AEEB050401FA05FE45
:101920000C35C5F1200100FA05F5C8404EEA000E5D
:101930006FF35F5343F480139CE733F00043B3FA33
:1019400083F504BFB2FA82FE75440B3D641BB5F10A
:10195000200E2FBF02FA0EF3AB40C5F1200E22FA83
:101960000EFE38BF43EA0E03AA40641C7CE750EA2F
:10197000410E14BF52EA430E6FF000014FF4001500
:1019800015EB430F8EBF194615EB410F9DE7B4D8F9
:1019900030BDD4F10104B4F120050FDAC4F1200503
:1019A000520828BF42F0010210FA05FE01FA05F5BF
:1019B0007244E2BFE0402843E1400FE0352C9ADC5E
:1019C000C5F1200452EA400220FA05F218BF42F0A5
:1019D000010231FA05F0A1400A43002172F10042F0
:1019E00050F1000051EB0C0130BD00000048704781
:1019F00084000020BBBBE1B1B2F5803F80F07E8067
:101A0000022A1ED98C46B1FBF2F102FB11C31B0462
:101A100043EA1043B3FBF2FC02FB1C3380B240EA02
:101A20000343B3FBF2F002FB103240EA0C40002308
:101A30007047022A05D98446B0FBF2F002FB10C2BF
:101A400070474AB105D100F0010249085FEA300051
:101A5000704700220023704700F0E8B80B00020036
:101A6000002100207047904271EB030CF6D3B3F5D0
:101A7000803F2FD2F0B5B3FA83F7B1FA81F4A7F122
:101A80000F0E3D1B5340CEF1200602FA0EF2F34139
:101A90005340B5F10F0746D80F3C2C444140C4F1E8
:101AA0002006A040F1414140B1FBF3F603FB1611C3
:101AB000A2FB0645001BA94102D2761E801859419F
:101AC00080EA010221FA0EF362FA0EF200215A4076
:101AD0003046F0BD30B4B1FBF3FC03FB1C11A2FB9C
:101AE0000C45001BA94103D2ACF1010C80185941EF
:101AF00030BC02460B46604600217047B2F1807F41
:101B000065D3F0B5B2FA82F7B1FA81F4C7F10F06E6
:101B10003D1B22FA06F307F1110EF24120355A401F
:101B2000B5F10F07B8D94140C4F12006A040F141FA
:101B30004140B1FBF3FC03FB1C11A2FB0C45001B55
:101B4000A94103D2BCF1010C801859410F2F12D3C7
:101B50000F3FC90341EA5041B1FBF3F603FB1611F5
:101B6000A2FB0645D4EBC030A94102D2761E8018F4
:101B7000594146EACC3C07B34140C7F12006B84082
:101B8000F1414140B1FBF3F603FB1611A2FB064500
:101B9000001BA94102D2761E8018594180EA010239
:101BA00021FA0EF3C7F1200462FA0EF20CFA07F0E4
:101BB0005A402CFA04F13043F0BD80EA010221FAC8
:101BC0000EF3002162FA0EF260465A40F0BD8C46D8
:101BD000B1FBF2F102FB11C31B0243EA1063B3FB3A
:101BE000F2FC02FB1C331B024CEA002043EA1063A8
:101BF000B3FBF2FC02FB1C331B024CEA002043EA5D
:101C00001063B3FBF2FC02FB1C331B024CEA002006
:101C100043EA1063B3FBF2FC02FB1C324CEA0020E7
:101C200000237047012000F003B800007047000057
:101C300080B5AFF30080024A11001820ABBEFBE76D
:101C400026000200F0B585B050260B9D25B986F31D
:101C5000118800F044FAFEE70C9C24B986F3118841
:101C600000F03DFAFEE75C270097DDF800E0BEF1EA
:101C70005C0F04D086F3118800F031FAFEE725638B
:101C80000027022584F8595004AE0A9D0397029458
:101C90000196009500F034F8204600F078F804989A
:101CA00005B0F0BD2DE9F8430646174684B08846D6
:101CB0009946B80000F070FB04001CD05C2000F0D6
:101CC0006BFB050014D000212C6385F8591003919B
:101CD00002950D990C98019100904B463A46414669
:101CE000304600F00DF8284600F051F8012004E0DD
:101CF000204600F0D5FB4FF0FF3005B0BDE8F08383
:101D00002DE9F0470A9D80460C461746286B9946F8
:101D1000A522B90000F012FC296B01EB8702171F06
:101D2000FF08FF000021635C6A1882F83430605CB1
:101D300010B1491C1029F6D3089E002085F84300F5
:101D4000372E88BF3726099CEE6205F14C0ACAF887
:101D50000400CAF80060281D00F01AFC05F1180004
:101D600000F016FC2D61C6F13806AE616D620021EF
:101D7000CAF8081000208AF80C004A464146384646
:101D800000F044FC286004B12560BDE8F0872DE92F
:101D9000F04100F068F8DFF87855DFF87885E86CF6
:101DA000401CE8641426A86A28BBAC62E86C0128D1
:101DB00029D1002706FB07F0404400F0DCFB7F1C24
:101DC000382FF7D305F1740000F0D5FB05F1880733
:101DD000384600F0D0FB284600F0CDFB05F114009A
:101DE00000F0C9FB05F1380000F0C5FB05F17400F7
:101DF000E8622F6307E0A86D28B9E06AAA6AD16A91
:101E0000884228BFAC62AA6EE06A521C6264696DA7
:101E1000814238BF6865AA664643211D08EB06006B
:101E200000F0B9FB00F063FCA86D20B100F09DF953
:101E300001D200F04FF9BDE8F08180B580B1DFF844
:101E4000D024116F21B100F02FF900F048F9FEE71E
:101E5000136F5B1C136700F069FA00F044F808B9CF
:101E600000F038F901BD044600F028BC80B586B00A
:101E700000210591049103AA04A905A800F04FFDD3
:101E8000059A049902920020019100900023039A80
:101E90000FF2FC410FF26530FFF7D4FE98B100F06D
:101EA00053FD5021012810D181F3118800F017F95A
:101EB000DFF8C8044FF0FF31C166012282650021BE
:101EC000016500F0C1FB07B000BD10F1010FFAD1B0
:101ED00081F3118800F003F9FEE7DFF8A014086F22
:101EE000401C0867704770B5DFF82464306F002429
:101EF000002520B900F043F800F0F1F8FEE700F00B
:101F0000DDFB306F401E3067306F002836D1F06C3B
:101F1000D0B933E0F068C46800F035F800F0BFF9DC
:101F2000E36A706D984238BF73651422DFF850047D
:101F30005343211D184400F02EFBE06AB26AD16AB7
:101F4000884224BF0122326630680028E2D10CB1F9
:101F500000F08BF9F46D44B100F01DF808B10120D8
:101F60003066641EF8D10020F065306E30B1DFF8C5
:101F700014044FF08051012500F0B0F8CCE150215D
:101F800081F31188704704F1180000F02ABBDFF8D4
:101F9000EC03006D70472DE9F843DFF87463306F90
:101FA000002500284FD1346D641C346510D1F06ACF
:101FB000006820B1FFF7E3FF00F091F8FEE7F16A57
:101FC000306BF0623163706E401C706600F04DF94A
:101FD000F06EDFF8AC8384424FF0140927D31FE082
:101FE000F16AC868C768786884422AD3381D00F04F
:101FF000F8FAB86A18B107F1180000F0F2FAF86AB6
:10200000716D814238BF706509FB00F0391D404495
:1020100000F0C1FAF86AB26AD16A884228BF012585
:10202000F06A00680028DBD14FF0FF31F166B06A3A
:10203000C06A09FB00F958F80910022906D30125E6
:1020400004E0F066F3E7F06D401CF065306E00B11F
:1020500001252846BDE8F28310B5DFF8B422106FE1
:1020600010B10121116610BD1066DFF81443506DE8
:1020700000E0401E14234343E15831B90028F8D151
:1020800000F012F800F02BF8FEE7E1184B685C68EE
:102090004C6001F108039C4204BF64684C604B68CB
:1020A000D9689162506510BD502080F31188704747
:1020B00010B50C4620B9FFF7F7FF00F010F8FEE767
:1020C00000F027F800F074FA2046BDE81040FFE762
:1020D00001212BE1DFF8AC024FF080510160BFF32A
:1020E0004F8FBFF36F8F704738B50D46144620B938
:1020F000FFF7DAFFFFF7F3FFFEE700F00AF800F062
:102100004AFA0CB14FF0FF3521462846BDE834406D
:102110000CE1DFF868329A6A02F11801704738B5AD
:10212000C068C46824B9FFF7BFFFFFF7D8FFFEE718
:10213000FFF729FFDFF84452286F40B900F0AFF8ED
:1021400000F018F838BF6A6500F0EAF802E004F120
:102150001801284600F01FFA00F007F803D2012109
:102160002966012032BD002032BDA96AE26AC86A30
:1021700090427047E26A686D90427047DFF8FC2138
:10218000516E0160126D42607047F8B504460D460D
:10219000502024B980F31188FFF7A1FFFEE725B98D
:1021A00080F31188FFF79BFFFEE700F087FADFF866
:1021B000CC01D0F850C02B68616813F1010FACEB73
:1021C00001020DD0466E2768BE4201D08C450BD26D
:1021D0009A4207D29A1A2A60416E2160006D6060AF
:1021E000002402E000202860012400F080FA20464C
:1021F000F2BDDFF8880101210166704770B5454CDA
:10220000DFF8785111E000F059FA286AC668301DED
:1022100000F0E7F9E86C401EE864686B401E6863F4
:1022200000F065FA304600F009F8686B0028EAD142
:102230002268022AF9D3FFF74DFFF6E710B50446EE
:1022400094F8590040B9206B00F02AF92046BDE807
:10225000104000F025B910BD0128F7D00228FAD0AF
:10226000FFF722FFFFF73BFFFEE72949C86A006836
:1022700018B94FF0FF32CA667047CA6AD068C268A0
:102280005068C8667047DFF8F410886D08B90120FF
:102290007047086F08B90220704700207047201D62
:1022A00000F09FB938B50446002134B3DFF8CC50B4
:1022B000A86A5022844204D082F31188FFF70FFFEE
:1022C000FEE7206D20B982F31188FFF708FFFEE7D3
:1022D000E36AE26C401E934220650ED068B9FFF7B6
:1022E000DEFFE06CE062C0F13800A061FFF742FF62
:1022F00038BF6A6500F003F80121084632BD14209A
:10230000DFF87C304243211D981800F044B90000EA
:1023100018190020D40C002000F0E9F9284670BDFF
:102320001420174B4243211D98187047F8B5134EDF
:10233000376D0C46B16A0546081D00F052F915F1DB
:10234000010F05D124B1B06A011D06F138001BE070
:10235000B06AED194560BD42B06A05D2011D306B0F
:10236000BDE8F44000F024B9011DF06A00F020F946
:10237000F06E854238BFF566F1BD000018190020E7
:10238000D40C002004ED00E0BDE8F44000F003B9F7
:1023900049444C45000000002DE9F8430446FFF78E
:1023A0009CFD654FB8684FF00008002508BB07F199
:1023B000180307F1180013F0070F4FF440620146AD
:1023C00005D0C11DC908C900C1F54063C218521823
:1023D000083AD208D20039607D60BA605560156055
:1023E000531A4B600A6048683861F8604FF000404B
:1023F00078614FF050097869044241D1002C3FD0F8
:10240000083414F0070F04D004F1080104F00700A9
:102410000C1AACB3F868A04232D33E68394601E0EA
:10242000314606467068A04202D230680028F7D1D3
:10243000B868864224D00A683068086002F108084B
:102440007268121B112A0CD3311911F0070002D047
:1024500000F01FF8FEE7301D02517460084600F0DE
:1024600046F87168F8683A69401AF860904288BF87
:1024700010463861786901437160356008F00705DE
:10248000FFF731FD15B100F004F8FEE74046BDE866
:10249000F28389F31188BFF34F8FBFF36F8F7047BB
:1024A000002800D1704738B5A0F10804224D6368B8
:1024B000696950220B4204D182F31188FFF7EBFFC8
:1024C000FEE7206820B182F31188FFF7E4FFFEE702
:1024D0008B436360FFF701FDE96860684118E960BC
:1024E000204600F004F8BDE83140FFF7FCBC30B5F1
:1024F00011490A4600E01A4613688342FBD3536829
:10250000D418844203D14068C3185360104643680E
:102510001468C518A54208D189688C4204D0616846
:10252000CB184360246800E00C460460824218BF68
:10253000106030BD00000000BC00002062F30F22DC
:1025400062F31F4200B500BF13009646944610394F
:1025500028BFA0E80C50FAD85FEA417C28BF0CC025
:1025600048BF40F8042BC90728BF20F8022B48BFFA
:1025700000F8012B00BD4FF0FF3200F1080182602E
:102580004160C16000F108020261002101607047F2
:1025900000210161704710B542684A6094688C6000
:1025A00093685960916008610168491C016010BD21
:1025B00030B50D6815F1010F08BF046907D000F1AF
:1025C000080400E01C4663681A689542FAD2626803
:1025D0004A6091608C60616008610168491C01601B
:1025E00030BD10B5426801698368936082684368B2
:1025F00053604C68844204BF83684B6000220261D0
:102600000868401E0860086810BD0000490810B541
:102610004900A0F10C034FF0807459609C600FF2E8
:102620000D01196040F8202D203810BD544A516822
:10263000502011F1010F80F31188BFF34F8FBFF3CA
:102640006F8F00D0FEE7FEE71CB54E494C4C087872
:102650000190FF230B7007200A788DF800209DF869
:10266000002002F05002227005E09DF80020520088
:10267000401E8DF800209DF800301A06F5D4424225
:1026800012F1030F03D0A06000F050F8FEE7000243
:1026900000F4E060A060019808703B48026842F4D2
:1026A00070020260016841F07041016000F0DCFAE4
:1026B0000020606000F01FFB002016BD502080F35A
:1026C0001188BFF34F8FBFF36F8F2D4A5168491C9C
:1026D000012951600AD12D4B1A68110606D080F3EA
:1026E0001188BFF34F8FBFF36F8FFEE77047244908
:1026F000486838B9502080F31188BFF34F8FBFF37B
:102700006F8FFEE7401E486008BF80F31188704756
:1027100080B500F00BF8FFF73EFC18B11B484FF0F6
:1027200080510160002282F3118801BD502080F3A6
:102730001188BFF34F8FBFF36F8F7047EFF30582A0
:102740005020102A0E490BD3114B9B5C0A78934200
:1027500006D280F31188BFF34F8FBFF36F8FFEE770
:1027600089680C4B1A6802F4E062914206D280F349
:102770001188BFF34F8FBFF36F8FFEE770470000E4
:102780006800002000E400E020ED00E004ED00E03F
:10279000F0E300E00CED00E0EFF30580002804BF5B
:1027A000EFF31080002807D1DFF8641108680228D1
:1027B00003D1EFF3118000B180E0086810B9012265
:1027C0000A6070474FF0FF307047000080B500F09E
:1027D000A2F804BFEFF31080002805D100F071F8D3
:1027E00003D1EFF3118000B109E00A68012A05D195
:1027F00002200860FFF73AFB002002BD02E06FF004
:10280000050002BD4FF0FF3002BDF0B585B00023DA
:102810000493EFF30583002B04BFEFF31083002B29
:1028200049D1DFF8EC402368022B03D1EFF3118389
:10283000002B40D103003ED00023802518268DF8C0
:102840000C3003AC5AB3136803B11C4693691BB137
:102850001E0004D0392E02D21779FB0701D50020C3
:102860002AE0536903B19D08D2F80CC0976887B17C
:10287000BCF15C0F1FD31269002A18BF002B1AD0BD
:1028800001920B46029700962A462146FFF7DAF995
:1028900010E0BCF1000F04BF1269002A0BD104AB99
:1028A000019300960B46AAB22146FFF7FBF90128D7
:1028B00001D000200490049805B0F0BD6FF0050031
:1028C0007047DFF84C1008680228704710B500F018
:1028D00015F804BFEFF31081002905D100F012F8BC
:1028E00005D1EFF3118111B16FF0050403E000246D
:1028F00008B1FFF7A2FA204610BD0025EFF30581CD
:1029000000297047024A1168022970470000000040
:10291000E41A00200446EFF3058000287047084BB6
:10292000036003F15C000860802111607047054B73
:10293000036003F15C0008604FF480711160704720
:10294000901500203411002010B586B000F058F921
:10295000DFF8FC42A068C0B100220592049204A9ED
:1029600003AA05A8FFF7E3FF059A04990292022043
:10297000019100900023039A0FF2DC210FF2710005
:10298000FFF760F90028E06005D1502181F311883C
:1029900000F017F9FEE7012006B010BD2046BDE8A3
:1029A000F681F8B5044684B01E46002014B900F044
:1029B00005F9FEE7DFF89872BD68BDB10629009100
:1029C000019202940CDAFFF75EFC022807BF0A9A14
:1029D000002300230022B868694600F021FA05E0D0
:1029E000002332466946284600F0B1FA05B0F0BD32
:1029F000F8B586B0964D2968086810B901240026FC
:102A000002E0C86806680024FFF767FA01A800F032
:102A10009AF807460198002839D124BBB74227D33A
:102A2000FFF761FA2968C868C468201DFFF7D9FD5F
:102A3000E069012810D1A16933463A468919204638
:102A400000F0C4F840B1002000900023324600217D
:102A50002046FFF7A6FF18B1616A204688471FE0AD
:102A600000F0ACF8FEE769680868441EA441E40F72
:102A7000A8682246F11B00F0EBFBFFF734FA78B9A7
:102A800074484FF08051016000F09BF808E0FFF7B8
:102A90002AFA05E0034602460918204600F096F897
:102AA000A868002202A900F09AFA0028A3D0029890
:102AB000002803D505990498039A904702980028A6
:102AC000EED4049C606910B1201DFFF78AFD01A8B7
:102AD00000F039F802990929E2D8DFE801F015156C
:102AE00015050E061515050EDAE794F82C000028DA
:102AF000D6D12046FFF7D4FCD2E70399A161002983
:102B0000C8D100F05BF8FEE703990246A0690B46C6
:102B10004118204600F05AF80028C1D0616A2046CA
:102B20008847E269012ABBD1002000900023039A64
:102B3000A069821800212046FFF733FF0028AFD19B
:102B400000F03CF8FEE72DE9FC410646404DFFF75A
:102B50001EFA296904468C4209D3002030602C619A
:102B60001CE778603F61391D2868FFF721FD29685F
:102B70000868E8B1C868D0F80080C768381DFFF75A
:102B800030FD796A38468847F8690128EFD1B8697D
:102B900040448045E5D300200090002342460021B8
:102BA0003846FFF7FEFE0028E1D100F007F8FEE707
:102BB00068686960286001213160D0E7502080F3A7
:102BC0001188BFF34F8FBFF36F8F704738B5002464
:102BD0008A42416000611E4D06D38169D21A8A4241
:102BE00006D2011D686807E09A4203D2994201D3D8
:102BF000012403E0011D2868FFF7DAFC204632BDFE
:102C00001CB5FFF75BFD124CA068E0B904F114009D
:102C1000FFF7B1FC04F12800FFF7ADFC04F114024A
:102C200004F12801002022606160009004F13C035F
:102C300004F18C0210210A2000F0AAF8A06010B163
:102C400007A100F0F0FABDE81340FFF750BD000007
:102C5000EC17002004ED00E0546D72205376630001
:102C6000546D7251000000000748084B00220260BA
:102C7000002181604FF47A711A68B2FBF1F1491EAC
:102C8000416007220260704710E000E080000020F1
:102C9000EFF30980BFF36F8F1D4B1A6820E9F00F27
:102CA000106008B54FF0500080F31188BFF34F8FCC
:102CB000BFF36F8FFFF7D0F94FF0000080F311885A
:102CC000BDE8084019680868B0E8F00F80F309888B
:102CD000BFF36F8F70470E4B19680868B0E8F00FAC
:102CE00080F30988BFF36F8F4FF0000080F31188E5
:102CF0004EF00D0E704707480068006880F30888A2
:102D000062B661B6BFF34F8FBFF36F8F00DF000075
:102D10004019002008ED00E038B504000D4602D14E
:102D200000F076F8FEE7FFF7C9FCE16B206C226843
:102D30004143501860600021A1632068E16BA060EE
:102D4000491E206C226841435018E06004F14401A0
:102D50004FF0FF300870487075B92069A0B104F1D8
:102D60001000FFF7DCF978B1DFF8DC044FF0805198
:102D7000016000F0B8F907E004F11000FFF7FBFB79
:102D800004F12400FFF7F7FBFFF7B1FC012032BD8F
:102D90007CB51C46502320B983F3118800F0A3F9B9
:102DA000FEE724B983F3118800F09DF9FEE72AB10C
:102DB00029B983F3118800F096F9FEE771B950251F
:102DC0000095009E502E0ED134B1069B012584F84B
:102DD0004650009400F00CF8204676BD83F311882D
:102DE00000F081F9FEE783F3118800F07CF9FEE73B
:102DF00038B5049C1D4600290CBF24602260E063A6
:102E0000216420460121FFF787FF84F84C5031BD33
:102E1000502080F31188BFF34F8FBFF36F8F70473F
:102E20002DE9F64782B004461E46502714B900F03B
:102E300058F9FEE75FEA010A01D1206C60B9022E61
:102E400002D1E06B01280AD1FFF71DFA50B90398AF
:102E500040B100F046F9FEE700F043F9FEE700F06C
:102E600040F9FEE7274600244FF08058DFF8D8935A
:102E70002EE0039800284BD014B900F043F9012448
:102E8000FFF735FCFFF729F8FFF718FC07F14400BE
:102E900000F03BF904BF0021017000F02EF904BFDF
:102EA00000214170FFF723FC00F04DF8002844D1C9
:102EB000FFF704FCB96BF86B814214BF00250125B4
:102EC000FFF715FC45BB384600F06EF9FFF70BF82D
:102ED000FFF7F4FBB96BF86B814201D3022EC8D126
:102EE00032465146384600F017F9796A29B107F1A0
:102EF0002400FFF714F908B904E018B1C9F80080FC
:102F000000F0F1F8FFF7F3FB012004B0BDE8F08713
:102F1000FFF7EDFB0020F8E7039907F11000FFF73A
:102F2000C7F8384600F040F9FEF7DDFF0028CFD1A2
:102F3000C9F8008000F0D7F8CAE7384600F034F945
:102F4000FEF7D1FFE6E703A96846FFF71EB92DE9B2
:102F5000F8430446884615461E46502714B900F02B
:102F6000C0F8FEE7B8F1000F01D1206C38BB022E8B
:102F700002D1E06B012825D1FFF7E0FBEFF31189C7
:102F800000F0AFF8A16BE06B814201D3022E21D19A
:102F900094F9457032464146204600F0BDF817F1DD
:102FA000010F12D1606A98B104F12400FFF7B7F85D
:102FB000002818BF002D0BD00120286008E000F089
:102FC00090F8FEE700F08DF8FEE77F1C84F845706E
:102FD000012000E0002089F31188BDE8F2832DE98B
:102FE000F74306460F460024502526B985F311887D
:102FF00000F079F8FEE70FB9306C48B9FFF743F9F4
:1030000078B9029868B185F3118800F06CF8FEE792
:1030100085F3118800F067F8FEE700F07BF8FEF713
:1030200062FFFFF74BFBB56BDFF81C92002D4FF0F2
:10303000805832D10298002845D014B900F062F8C7
:103040000124FFF754FBFEF748FFFFF737FB06F1BB
:103050004400425712F1010F04BF0021017000F03B
:103060004CF804BF00214170FFF741FB02A9FFF7B4
:103070006BFF002830462AD100F0CAF80028CCD0D7
:1030800000F036F800F046F8FEF72DFF0028C8D112
:10309000C9F8008000F027F8C3E73946304600F051
:1030A0006FF86D1EB563306940B106F11000FFF78F
:1030B00036F818B1C9F8008000F015F8FFF717FBD3
:1030C0000120BDE8FE83FFF712FB0020F9E700F0C6
:1030D0006BF8FEF708FF304600F09AF80028A0D001
:1030E000F3E787F31188BFF34F8FBFF36F8F7047FC
:1030F000029906F12400FEF7DBBF90F9012012F1DE
:10310000010F70476846FFF739B890F9002012F1B7
:10311000010F7047304647E0F8B506461546B46BD8
:10312000326C002742B9306830BB7068FFF7BAF8DC
:103130000021074671601FE065B9B068FDF7D0FF58
:10314000B168306C08447168B060884214D330684C
:10315000B06011E0F068FDF7C3FF306CF2684042E8
:103160000244F26031688A4202D272681044F06010
:10317000022D01D104B1641E641CB4633846F2BD53
:10318000026C002A0B4600D1704710B5C468416834
:103190001444C4608C4224BF0468C460C168BDE8A4
:1031A00010401846FDF79CBFF8B50546FFF786FAB4
:1031B00005F1440494F9016007E005F12400FEF7ED
:1031C000AEFF08B1FFF715F8761E70B2012802DBDA
:1031D000686A0028F1D14FF0FF366670FFF787FA72
:1031E000FFF76CFA94F9007007E005F11000FEF7A4
:1031F00096FF08B1FEF7FDFF7F1E78B2012802DBC3
:1032000028690028F1D12670BDE8F140FFF76FBAB8
:1032100010B50446FFF752FAA06B441EA441FFF715
:1032200066FAE00F10BD10B50024084B53F83420A7
:103230001AB1641C082CF9D310BD43F8341003EB09
:10324000C401486010BD000004ED00E08C1A0020AD
:10325000F8B504460D461646FFF730FA04F1380774
:1032600097F90C1011F1010F04BF0020387397F982
:103270000D1011F1010F04BF00207873FFF737FA2A
:10328000386828B93246294604F12400FEF72CFF9D
:103290002046BDE8F24087E738B5DFF8A0440FF2DA
:1032A000350022460021DFF89854FFF7AEFA286077
:1032B00004F1240200210FF23100FFF7A6FA686042
:1032C00004F1480200210FF28900FFF79EFAA8607E
:1032D00031BD000010B5DFF86C44204600F01FFB44
:1032E0000120FFF7F3FAF8E770B5DFF85C64DFF868
:1032F0005C44DFF85C540422294604F1100000F01D
:10330000F1F92022294604F1180000F0EBF94022DF
:10331000294604F1200000F0E5F90822294604F1CD
:10332000280000F0DFF91022294604F1300000F0F7
:10333000D9F910223146204600F0D4F92022314636
:1033400004F1080000F0CEF91420FFF7BFFAD2E72D
:103350002DE9F84F84B04FF4FA70FFF7B7FADFF8B1
:10336000F4630FF2244BDFF8E4730FF2144A0124E4
:1033700006F122050FF230380FF230390DE000F07F
:10338000A5F9B87A00280CBF42464A460F2100F042
:103390009EF94FF4AF70FFF799FAA8790828F8D88A
:1033A000DFE810F00A0038006C00A100F8001601F8
:1033B000300144014C01ECE720000CD000F08EF904
:1033C0000FF2943000F01EFB00F084F90FF29C30F5
:1033D00000F018FB002400F06BF900F06EF96A7839
:1033E000594600F067F96A460D2100F068F9F27B52
:1033F000594600F05FF96A460321012000F010FBF6
:10340000327C594600F056F96A460D21012000F041
:1034100007FBBEE7012C0CD000F060F90FF2703012
:1034200000F0F0FA00F056F90FF2783000F0EAFA06
:103430000124307D002814BF42464A46052100F091
:1034400042F9B878002814BF42464A4600F03AF9DB
:103450003078002814BF42464A46052100F037F96B
:10346000E879002814BF42464A46092100F02FF9A6
:10347000B87800280CBF4A46424687E7022C0CD099
:1034800000F02CF90FF2303000F0BCFA00F022F915
:103490000FF2383000F0B6FA0224F878002814BF92
:1034A00042464A46062100F00EF9287A002814BF49
:1034B0009DA29EA20B2100F006F9F87A002814BF05
:1034C00042464A46062100F002F9307D002814BF2A
:1034D00042464A460B2100F0FAF8307800280CBF2B
:1034E0004A46424652E7032C0CD000F0F7F800BFE2
:1034F000BBA000F087FA00F0EDF800BFBDA000F01F
:1035000081FA03242878C0F3C000002814BF88A2E1
:1035100088A2032100F0D7F82878C1074CBF4A469B
:1035200042460D2100F0CFF82878C0F34000002873
:1035300014BF4A4642460E2100F0C5F82878C0F371
:103540008000002814BF4A46424600F0BBF8B07B1A
:10355000C0F3C000002814BF75A276A2032100F0BA
:10356000B6F8B07BC1074CBF4A4642460D2100F079
:10357000AEF8B07BC0F34000002814BF4A46424674
:1035800000F0A4F8B07BC0F3800000280CBF4246D6
:103590004A46FBE6042C0BD000F0A0F89AA000F0FD
:1035A00031FA00F097F800BF9CA000F02BFA042439
:1035B000D6F818209EA100F07DF86A46052100F09B
:1035C0007EF872689AA100F075F86A4605211DE739
:1035D000052C0BD000F082F897A000F013FA00F051
:1035E00079F800BF99A000F00DFA0524B6F81C2068
:1035F0009BA100F05FF86A46052100F060F832896F
:1036000097A1E0E7062C10D000F068F8062400BF70
:1036100095A000F0F7F900F05DF800BF97A000F06A
:10362000F1F94FF47A70FFF751F9B2E6072CFCD0AC
:1036300000F054F8072400BF95A0EAE7082C0BD04F
:1036400000F04CF897A000F0DDF900F043F800BF5F
:1036500099A000F0D7F9082400F02AF800F02DF81E
:1036600000F026F86A460C2100F029F8687A002854
:1036700014BF31A24A46012100F029F8307D00280C
:1036800014BF4A464246062100F021F8307800284F
:1036900014BF4A4642460B2100F019F8B8780028BA
:1036A00014BF4A4642466AE630000000310000007E
:1036B0006A895146684600F0BBB96A46032100207A
:1036C00000F0AEB90F21002000F0AAB90E210120B0
:1036D00000F0A6B90021012000F081B900210020EE
:1036E00000F07DB910B50446084623786370114692
:1036F00000F090FAA1882070637883420FD1E278BD
:1037000090420CD001220629B8BF491C09DB32299E
:10371000B8BF491D05DBFA2903DA143101E00022A4
:103720000021A180A27010BD3C2D00002D3E0000A4
:103730004C000000520000003200000088500008D9
:10374000CC1A0020D81A0020000C014030000020C4
:10375000000801400000002053503A585858742087
:1037600053204D313A303025000000004D323A30C0
:1037700030252020204D32723A30302500000000E4
:103780002530336400000000253032640000000062
:10379000524350313A5820534554205377313A58C8
:1037A00000000000524350323A5820426C312053FE
:1037B00077323A58000000005377315F693A782039
:1037C0005377312D3E537732000000005377325F3C
:1037D000693A782046313A3146323A3100000000E9
:1037E0004D313A4C205374446972456E3A3131314F
:1037F000000000004D323A4C205374446972456E0B
:103800003A313131000000004D315F503A5858587C
:103810005858582054657374000000004D325F50B2
:103820003A5858585858582054657374000000008E
:1038300025303664000000004D315F4D3A5858582D
:103840005858202054657374000000004D325F4DBD
:103850003A58585858582020546573740000000096
:10386000253035640000000020202020205375639F
:103870007365737320202020000000002A2A2A2A62
:103880002A2A2A2A2A2A2A2A2A2A2A2A0000000040
:10389000202020466C6173682045726F72202020C2
:1038A0000000000053503A58585820204375723A8F
:1038B00058585820000000004D582052313A30200E
:1038C00052323A30202031310000000038B5040077
:1038D00001D1012032BD20684CF6CC43036045F293
:1038E0005551016062684260A168816000F0B6F9DC
:1038F00005462068C16811F0030F0BD000F0AEF947
:10390000401B2828F5D32168C86810F0030FF0D0B9
:10391000032032BD4AF6AA210160002032BD0068B2
:103920004AF6AA21016000207047000010B5304C13
:1039300000F062F80120FEF7C9FF012200F05DF8F7
:103940000120FEF7C3FF00F057F8BDE8104001204A
:10395000FEF7BCBFF8B504460F46264D04F08002C2
:1039600000F038F804F040024FF4806100F034F8C1
:1039700004F020024FF4007100F02EF804F0100261
:103980004FF4807100F028F8194E00F01DF8FFF791
:10399000CDFF04F0080200F01DF804F004024FF41B
:1039A000806100F019F804F002024FF4007100F099
:1039B00013F804F001024FF4807100F00DF800F0EC
:1039C00003F8BDE8F140B1E7FAB24FF48041304668
:1039D00000F026B94FF40061284600F021B90A46EC
:1039E00008B142F04002002142F08000B2E700003E
:1039F000000C01400008014000224FF40041204625
:103A000000F00EB910B5044604E014F8010B0121D2
:103A1000FFF7A0FF002C1CBF20780028F5D110BDB7
:103A200010B51446FFF7DBFF2046BDE81040E9E77C
:103A30000CB430B583B00A4606A9029104460025AD
:103A40000194009502AB01A9084878441E30FCF7A8
:103A500050FB01990D7000284EBF04460198041BCD
:103A6000204603B030BC5DF80CFB00BF9BD5FFFFC8
:103A70002DE9F84F002700246B4BDFF8B081DFF809
:103A8000B091DFF8B0B14FF00F0A024610E0D3F862
:103A900000E000EA0E00186009E0C3F804C04D68B9
:103AA000ED03F4D518684EEA000EC3F800E07F1C61
:103AB0000D6835FA07F000F0AB80012000FA07FC32
:103AC0000CEA050EE645F2D14D683DB3012D1AD042
:103AD000022D1DD0032D2ED0112D16D0122D1AD04F
:103AE000554885421CBF5548854217D054488542E9
:103AF0001CBF5448854211D0534885421CBF5348CF
:103B000085420BD018E0CC6816E0CC68241D13E089
:103B1000CC68083410E0CC680C340DE0886808B933
:103B2000042409E0012819BF0824C2F814C008249D
:103B3000C2F810C000E00024BEF5807F03D210461A
:103B40004FEA870C04E0A7F10805101D4FEA850C29
:103B500006680AFA0CF5AE4304FA0CF545EA060CC1
:103B6000C0F800C04868C000A1D5D9F800C04CF02A
:103B7000010CC9F800C0BD00D9F8000000F0010038
:103B8000009005F00C0C0098B80858F820600AFA6C
:103B90000CF5AE435A4508BF00250ED02C4DAA4265
:103BA00008BF012509D02B4DAA4208BF022504D029
:103BB000294DAA420CBF0325042505FA0CF545EA58
:103BC000060C48F820C06FEA0E004D68ED0204D5DF
:103BD0009D684EEA05059D6005E0D3F808C000EA3F
:103BE0000C0CC3F808C04D68D3F80CC0AD024CBF34
:103BF0004EEA0C0C00EA0C0CC3F80CC04D68D3F86C
:103C000004C0AD034CBF4EEA0C0C00EA0C0C44E7B8
:103C1000BDE8F18F8068084018BF0120C0B270472E
:103C200002B9090401617047000401400800014025
:103C3000181002400008014000001110000012108E
:103C4000000021100000221000003110000032108E
:103C5000000C014000100140001401400148406880
:103C6000704700BF7400002038B5040001D1012066
:103C700032BD04F14005687808B900F009F800F099
:103C80000CF800F022F8FFE7486100F010F832BDB0
:103C900000212970204600F083BA24206870216832
:103CA000C86820F40050C860204600F01DBA2168A2
:103CB000C86840F40050C8606A6020216970202004
:103CC000A87000216163002070472168086920F412
:103CD0009040086100222168486920F02A0070475E
:103CE000036803F10C0252E8002F0C33704743E8DD
:103CF000002100297047226802F1140151E8001FD9
:103D0000143221F0400142E800100028F3D1E06BAA
:103D10007047F8B504462268136811460846CD6816
:103D2000466913F00F0F03F0200105F0200007D1C2
:103D3000002918BF00285BD02046BDE8F24073E19F
:103D4000F70702D415F4907F52D0DA0705D5ED05B8
:103D500003D5626C42F0010262645A0705D5F5078B
:103D600003D5626C42F0020262649A0705D5F5073A
:103D700003D5626C42F0040262641A0706D508B9E2
:103D8000F30703D5626C42F008026264626C002A99
:103D90002DD000291EBF0028204600F045F92068DC
:103DA0004069626C110701D440061BD5204600F023
:103DB00004F92068416948060FD5FFF79CFF60B100
:103DC0000FF255214163E06B00F05CFA00280ED041
:103DD000E06B416BBDE8F44008472046BDE8F24087
:103DE00000F0ACBA204600F0A9FA00206064F1BDF2
:103DF000206B012804F1410140F08880D80600D5ED
:103E0000EE0640F18380002300931268009223683D
:103E10005A680092009B2068426950063CD5E26BCC
:103E20001068406880B20028E1D0A38D9842DEDAA5
:103E3000E0859069202827D0226802F10C0555E81A
:103E4000002F206800F10C0322F4807200F09DF82E
:103E5000F2D100F09EF8520800F11403520000F075
:103E600094F8F6D100F095F800F1140322F0400226
:103E700000F08BF8F6D1202048700021216300F07B
:103E80008FF8E06B00F0DAF902206063A18DE08D1D
:103E9000091A89B2204635E0A38DE28DE08D9B1A88
:103EA00000281CBF98B200286ED02246156805F184
:103EB0000C0454E8004F0C3524F4907445E800409D
:103EC0000028F3D1156805F1140454E8004F640884
:103ED0001435640045E800400028F3D120204870E4
:103EE00000211163146804F10C0151E8001F0C3427
:103EF00021F0100144E800100028F3D102205063A3
:103F000099B21046BDE8F44000F019BA18062BD556
:103F10002A0629D50878212836D1A068B0F5805F17
:103F200004BF2069002809D1226A21681088C0F3E3
:103F300008004860206A811C216205E0206A421C5A
:103F40002262216800784860E08C401EE08480B2E4
:103F5000D0B92168C86820F08000C8602168C868AE
:103F600040F04000C860F1BD58060DD56A060BD57B
:103F70002068C26822F04002C260204620220A70F7
:103F8000BDE8F24000F0DCB9F1BD43E800200028B4
:103F90007047226802F1140555E8002F2068704729
:103FA000226802F10C0151E8001F0C3221F01001CF
:103FB00042E800100028F3D17047036803F10C02B7
:103FC00052E8002F0C3322F4907243E800210029BC
:103FD000F3D1036803F1140252E8002F520814339E
:103FE000520043E800210029F3D1016B01290BD1D4
:103FF000036803F10C0252E8002F0C3322F0100288
:1040000043E800210029F3D1202280F8422000213A
:104010000163704700000000406A0022C285002151
:10402000C18400F08BB900001CB590F84210222921
:1040300058D18168826AB1F5805F0AD1016969B996
:1040400003685968C1F308011180826A911C81627A
:104050000FE0002904BF0169002902D103685968F3
:1040600003E00168496801F07F011170816A4A1C10
:104070008262C18D491EC18589B289BB0268D1683F
:1040800021F02001D16000230168CA6822F4807207
:10409000CA6002685169490849005161202280F8CC
:1040A00042204363016B012918D100220263FFF70C
:1040B00017FE22F01002FFF71AFEF8D101680A6815
:1040C000D30607D5002200920B680093046862684B
:1040D0000092009B818D00F032F901E000F031F98F
:1040E000002016BD022016BD10B5044622681169D5
:1040F000E06821F4405101431161D3681948A16877
:10410000034020690B43616903430B43D3601649A5
:104110005369A06923F4407303438A42536102D177
:1041200000F040FB01E000F035FB626819214843D4
:104130009200B0FBF2F26421B2FBF1F16FF0630088
:1041400000FB0122120132326423B2FBF3F000F0D3
:10415000F00202EB0112216800F00F008018886065
:1041600010BD0000F3E9FFFF0038014000224FF4CA
:10417000964180B52C488260C26041604FF48062F5
:1041800002610C21294B0360002241618261C261FE
:10419000FFF76AFD18B1BDE8014000F09DBB01BD0D
:1041A00018B585B0044610210022684600F096FB41
:1041B00023681E498B4235D11D481E4C026842F4CB
:1041C00080420260016801F480410491049A016810
:1041D00041F0080101600222006800F0080004902C
:1041E00040200499009003210391019269462046E2
:1041F000FFF73EFC80200090002201920292694667
:104200002046FFF735FC0C49086840F0E06040F0BC
:104210000400086000220521252000F080FB2520F5
:1042200000F09CFB06B010BD441A0020003801408D
:1042300018100240000C01400400014090F82130A9
:10424000022B00F1380206D004211160002280F810
:1042500020200120704701680B6823F00E030B60DB
:104260000368196849084900196001239168526878
:104270008B4053600021012380F8213080F820100A
:104280000020704738B590F821200024022A00F160
:10429000340103D00420486001243EE00268136822
:1042A00023F00E03136003681A68520852001A6064
:1042B000DFF86C3002689A4208BF012322D0DFF891
:1042C00064309A4208BF10231CD0DFF85C309A4259
:1042D00008BF4FF4807315D0DFF850309A4208BF02
:1042E0004FF480530ED0DFF848309A4208BF4FF4A5
:1042F000803307D0DFF83C309A420CBF4FF4801374
:104300004FF08073DFF830201360012580F82150D2
:1043100080F82040096801B18847204632BD00007E
:10432000080002401C0002403000024044000240ED
:10433000580002406C000240040002407047704781
:10434000704770472DE9F843040016D02078DFF855
:10435000A074C10713D5786800F00C00042807D0BA
:10436000786800F00C00082840D17968C8033DD572
:104370003A68910303D56068002800F05B812078DB
:10438000DFF87C64810719D5786810F00C0F07D02E
:10439000786800F00C0008285FD17868C1035CD40D
:1043A0003868810703D52069012840F043813968C6
:1043B000606921F0F80141EAC001396021780807FD
:1043C00078D5A069DFF83C14002800F09E80012217
:1043D0000A60FFF743FC0546796A88075BD4FFF75C
:1043E0003DFC401B0228F7D9032026E16068B0F5A8
:1043F000803F03D1386840F4803013E058B1B0F505
:10440000A02F08D1386840F4802038603A6842F420
:1044100080323A6007E0396821F4803139603868C9
:1044200020F480203860606858B1FFF717FC05461B
:1044300039688803A3D4FFF711FC401B6528F7D324
:10444000D2E7FFF70BFC05463968880397D5FFF7DD
:1044500005FC401B6528F7D3C6E7206968B1012138
:104460003160FFF7FBFB0546386881079FD4FFF7F3
:10447000F5FB401B0228F7D9B6E700223260FFF7B0
:10448000EDFB05463968880798D5FFF7E7FB401B29
:104490000228F7D9A8E7DFF85C231168C9084FF4B0
:1044A0007A70B1FBF0F0009000BF0098411E002828
:1044B0000091F9D1207841076ED5F9690025C8002F
:1044C00009D4F96941F08051F9610125F86900F0DA
:1044D000805000900098DFF83083D8F80000C105C4
:1044E00020D4D8F8000040F48070C8F80000FFF72E
:1044F000B5FB8146D8F80010C80513D4FFF7AEFB12
:10450000A0EB09006528F5D36EE70860FFF7A6FB6E
:104510000546796A8807CDD5FFF7A0FB401B022826
:10452000F7D961E7E068012808D008B9386A09E0DE
:104530000528386A06D140F004003862386A40F035
:10454000010005E0400840003862386A20F00400AD
:10455000386241F28938E06860B1FFF77FFB81463D
:10456000396A880713D4FFF779FBA0EB09004045AF
:10457000F6D339E7FFF772FB8146396A880706D51B
:10458000FFF76CFBA0EB09004045F6D32CE71DB10B
:10459000F86920F08050F861E06900284CD0796813
:1045A00001F00C01082938D002282AD100F047F880
:1045B00005463968880105D5FFF750FB401B0228E6
:1045C000F7D911E7206AB0F5803F05D17968A06876
:1045D00021F40031014379607A68206A616A22F42B
:1045E000741202430A437A60012000F029F804465D
:1045F0003868810120D4FFF731FB001B0228F7D96E
:10460000F2E600F01CF804463868810114D5FFF783
:1046100025FB001B0228F7D9E6E601280AD07868B6
:10462000226A00F48031914202BF00F47010616A86
:10463000884201D0012000E00020BDE8F283002084
:104640003066FFF70BBB2DE9F041040088465FD0D0
:104650006E4E306800F00700404509D23168C90845
:1046600048EAC1013160306800F0070040454FD191
:1046700021685F4D880712D5490703D5686840F463
:10468000E06068602078010703D5686840F46050F6
:1046900068606968A06821F0F001014369602178D1
:1046A000C80726D56068012802D129688A0303E07B
:1046B000022803D129688A0103D429E02B689907CD
:1046C00026D56A68920840EA82006860FFF7C6FA59
:1046D00007466868616800F00C00B0EB810F08D0F5
:1046E000FFF7BCFAC01B41F289318842F1D30320A5
:1046F00032E0316801F0070188450BD23068C0080C
:1047000048EAC0003060316801F00701414501D03E
:10471000012021E02178480705D56968E06821F487
:10472000E0610143696021780A0706D5686821695C
:1047300020F4605040EAC100686000F00FF86A6839
:104740003349C2F303128B5C2A49D84008602B48D6
:10475000006800F017F90020BDE8F0812D492648D7
:104760000A6802F00C03082B00D0704710B500BF98
:104770002BA4C2F38343D203E35C08D509685843F2
:104780002BA3C1F34041595CB0FBF1F010BD2248AE
:10479000584310BD17481F4B00681A681F49C2F3E1
:1047A000022206E013481B4B00681A681B49C2F33B
:1047B000C222895CC840704710B50F220260154ABA
:1047C000136803F003034360146804F0F00484608A
:1047D000136803F4E063C3601268D20802F4E06275
:1047E00002610A4A106800F00700086010BD00006E
:1047F000001002408000002000127A007C0000209F
:10480000000042428004424200700040002002400A
:10481000F85100080410024000093D00445200080D
:1048200002030405060708090A0B0C0D0E0F1010F1
:104830000102000080B500F0F3F800F00FF800F07E
:1048400001F900F083F9FFF791FC00F095F9FDF70D
:10485000A3FFFEF721FDFDF7B9FFFEE700B58FB01E
:104860002821002205A800F039F81421002268460A
:1048700000F034F80921059101224FF480310691AE
:1048800009920B920D91002302224FF4E01107933D
:104890000C920E9105A8FFF755FD08B100F01CF829
:1048A000022201920F200021009002914FF48062B9
:1048B0000491039202216846FFF7C5FE08B100F09B
:1048C0000BF80FB000BD01680248814208BF00F03C
:1048D000A7B970470008004072B6FEE74018491CAF
:1048E0001CBFB1F1010100F8012DF9D170470000A2
:1048F0000A01010002D41F4B5A5470471E4801F0B0
:104900000F01014401F8042C70471C490A6860F348
:104910000A2240F2FA5060F31F420A60704770B5F5
:10492000164C2368C3F302230124C3F10705052DA8
:104930002FBF0F26C3F1070604FA06F6761E1D1DCB
:10494000072D34BF0023DB1E3140994004FA03F3E6
:10495000BDE870405B1E1A401143C9E7010007D44F
:10496000012200F01F01064B8A40400943F8202035
:104970007047000000E400E018ED00E00CED00E0FE
:1049800000E100E078B50446204887B0016841F0B6
:104990000401016001A9006800F00400009002A871
:1049A000009AFFF709FF059810B9FFF7F3FE02E040
:1049B000FFF7F0FE40001649164D174B2B60B0FB79
:1049C000F1F1002040F2E732491E2861A860A86199
:1049D000EA606960284600F02BF9060012D12846EB
:1049E00000F033F906000DD11E20FFF7B7FF102CA1
:1049F00007D2002221461E20FFF791FF07480460DE
:104A000000E00126304608B070BD00001C100240D6
:104A100040420F00B4190020000800407C00002034
:104A200080B50748016841F0100101600320FFF7DD
:104A30006CFF0F20FFF7A6FF00F0C8FA002002BDB0
:104A400000200240F0B585B0102100226846FFF733
:104A500045FF3748374F0268374C384D42F0100257
:104A600002604FF60646016801F010010491049BB4
:104A7000026842F020020260016801F02001049106
:104A8000049B026842F004020260016801F0040124
:104A90000491049A016841F0080101600122006854
:104AA00000F0080004904FF4005104983846FFF7D6
:104AB000B7F8002231462046FFF7B2F800224FF443
:104AC000F8512846FFF7ACF8112201924FF400503C
:104AD0000021009002910222039269463846FEF7B7
:104AE000C7FFFC2000900022019200F029F831203D
:104AF000009000220192029269462046FEF7B8FF1C
:104B0000012201920021029102220392009669463D
:104B10002046FEF7ADFF4FF4F8500090012102202F
:104B200001910022039000F00BF805B0F0BD0000E9
:104B30001810024000100140000C01400008014024
:104B4000029269462846FEF793BF000080B50848E8
:104B5000084B032240F6FF71036042608160FEF75C
:104B6000B5FE18B1BDE80140FFF7B6BE01BD00BFFC
:104B7000D81A00200030004010B586B01021002265
:104B800002A8FFF7ABFE0021009101914721214CC3
:104B9000214A61600020A0604CF2503120616061C8
:104BA000A0612260E160204600F042F808B1FFF702
:104BB00093FE4FF48050029002A9204600F038F98D
:104BC00008B1FFF789FE0020009001906946204659
:104BD00000F022FA08B1FFF77FFE06B010BD0168B1
:104BE0000D48814200D0704780B50C48016841F4FF
:104BF000006101600022006800F40060009005215F
:104C0000009B1920FFF78BFEBDE802401920FFF73B
:104C1000A5BE0000FC190020002C01401810024025
:104C2000024A5168107841185160704774000020A2
:104C300038B5040001D1012032BD00F04BF818B99D
:104C400000F044F8FFF7CBFF2CE090F83D1001296D
:104C500001D001207047022180F83D100268D16820
:104C600041F00101D160DFF874200168914218BF62
:104C7000B1F1804F07D0DFF8683099421CBFDFF8F0
:104C80006420914206D1896801F00701062907D006
:104C9000026800E00A461168104641F00101016017
:104CA0000020704702206870211D206800F01FF965
:104CB0000121A9720120A870E97028716971A87199
:104CC000E971287269726870002032BD0021297074
:104CD0002046704704F13C0568787047002C01407D
:104CE000000400400008004010B504462068026936
:104CF000910715D5C268910712D56FF002020261C3
:104D000001212177806910F0030F204602D000F0C6
:104D1000B5F903E000F0B3F900F087F80020207740
:104D200020680269510715D5C268510712D56FF086
:104D30000402026102212177806910F4407F20463D
:104D400002D000F09BF903E000F099F900F06DF853
:104D500000202077206801690A0715D5C1680A0775
:104D600012D56FF00801016104222277C06910F0AA
:104D7000030F204602D000F081F903E000F07FF934
:104D800000F053F80020207720680269D10615D57D
:104D9000C268D10612D56FF0100202610821217796
:104DA000C06910F4407F204602D000F067F903E0AC
:104DB00000F065F900F039F80020207720680169DB
:104DC000CA0708D5C168CA0705D56FF0010101619E
:104DD0002046FFF778FD206801690A0608D5C168FA
:104DE0000A0605D56FF080010161204600F048F900
:104DF00020680269510608D5C3685A0605D56FF0C8
:104E000040010161204600F03CF9206801698A06F2
:104E10000AD5C1688A0607D56FF0200101612046D6
:104E2000BDE8104000F02EB910BD204600F02BB9AF
:104E300070B5044604F13C0600253078012801D104
:104E4000022070BD01223270022070702368DFF8EA
:104E5000FC009A6802409A600868020018BF102897
:104E600030D0202818BF30282CD0402826D05028F9
:104E700019D060281BD0702806D0B0F5805F27D0ED
:104E8000B0F5005F07D022E000F02CF821688868B8
:104E900040F0770005E000F025F82168886840F4CC
:104EA0008040886014E000F019F850210BE0CA68D7
:104EB0004968206800F065F8602104E000F00EF811
:104EC000402100E00146206800F06DF800E0012577
:104ED0000121717000203070284670BDCA68496891
:104EE00020683DE0CB684A688968206863E070B557
:104EF0000368174C174E184AA04218BFB0F1804FF4
:104F000003D0904218BFB04209D123F070054B681E
:104F10002B43A0421CBFB0F1804F904201D0B04261
:104F200003D123F44072CB6813434A6923F0800312
:104F300013430360A0428B68C3620A68826202D195
:104F40000A6906490A600123436170BD8800FFFFBA
:104F5000002C01400008004000040040302C0140BB
:104F600010B5036A046A64086400046223F00A034B
:104F7000846924F0F00444EA021484611943016254
:104F800010BD10B5036A046A24F01004046223F013
:104F9000A003846924F4704444EA0234846143EA3F
:104FA0000113036210BD826822F07002114341F0C8
:104FB00007018160704710B5846824F47F44214361
:104FC000114341EA0321816010BD000080B5104803
:104FD000026842F001020260016801F001010091E3
:104FE000009A416841F0805141600022406800F021
:104FF000805000900F21009B6FF00100FFF78FFCA5
:10500000044A1068022161F31A60106001BD00BFFC
:10501000181002400400014070B500F13C031A78FA
:10502000012A01D1022070BD01241C7002225A7095
:1050300006687568B4680A6825F0700515437560E0
:1050400002680C48824218BFB2F1804F05D0084D6B
:10505000AA421CBF0848824204D1486824F0800458
:1050600004439460012159700020187070BD000045
:1050700000040040002C01400008004070477047C9
:1050800070477047704770473852000800000000B2
:10509000000000000000000000000000000200000E
:1050A0001800000000000000000000000852000886
:1050B00000000000000000000000000000000000F0
:1050C000000200001A0000000000000000000000C4
:1050D000185200080000000000000000000000005E
:1050E00000000000000200000800000000000000B6
:1050F0000000000030B4002412E050F8043BDA074E
:1051000044BF4B445B1E091F042943F8044BFAD2E9
:105110001A468D0744BF1C80921CCB0748BF1470F1
:1051200050F8041B0029E8D130BC7047FEE7FEE7C9
:10513000FEE7FEE7FEE770470448FFF7D5BD0448E9
:10514000FFF7D2BD0348FEF7E4BD0000FC190020C4
:10515000B4190020441A002010B5034A7A440832DA
:10516000024C7C44A41D03E01C0000003800000039
:1051700004E01168101D114488470246A242F8D18C
:1051800010BD000071FFFFFF301A0000BC000020BE
:105190000000000023BEFFFF54010000FA000000E1
:1051A0000000002000F00DF8002801D0FFF7D4FF28
:1051B000AFF300800020AFF30080FFF73BFB00F06F
:1051C00002F80120704700F001B800000746384699
:1051D000FCF72EFDFBE700000548014603B46846D6
:1051E00080F30988AFF30080AFF30080FFF7DAFFA8
:1051F000A5EDF5FE70470000000000000000000073
:105200000102030406070809427574746F6E507238
:105210006F63657373696E004C454450726F6365CC
:105220007373696E670000000148804701480047BA
:10523000F5510008D95100086D61696E5461736BB6
:10524000000000000000000001020304FFF7FEBFA1
:10525000FFF7FEBFFFF7FEBFFFF7FEBFFFF7FEBF82
:10526000FFF7FEBFFFF7FEBFFFF7FEBFFFF7FEBF72
:10527000FFF7FEBFFFF7FEBFFFF7FEBFFFF7FEBF62
:10528000FFF7FEBFFFF7FEBFFFF7FEBFFFF7FEBF52
:10529000FFF7FEBFFFF7FEBFFFF7FEBFFFF7FEBF42
:1052A000FFF7FEBFFFF7FEBFFFF7FEBFFFF7FEBF32
:1052B000FFF7FEBFFFF7FEBFFFF7FEBFFFF7FEBF22
:1052C000FFF7FEBFFFF7FEBFFFF7FEBFFFF7FEBF12
:1052D000FFF7FEBFFFF7FEBFFFF7FEBFFFF7FEBF02
:1052E000FFF7FEBFFFF7FEBFFFF7FEBFFC000A405F
:1052F000190100F0D20000DE0008F7000A40190191
:1053000000F0D20000DE0008FA000001F700000102
:10531000F9000001F9000001F9000001F9000001A5
:10532000F9000001F9000001F800FCAAFC000001EE
:10533000F9000010FC001E24F4000A1300080A13F0
:1053400000080A1300080A1300080A1300080A13C9
:1053500000080A130008F8FF0B861000080A130063
:09536000080A130008FAFFFE0020
:04000005080051D9C5
:00000001FF
