:020000040800F2
:10000000501E0020B13400088133000883330008FB
:10001000853300088733000889330008000000009A
:10002000000000000000000000000000A711000810
:100030008B3300080000000061110008E10B00088C
:10004000D5340008D9340008DD340008E134000854
:10005000E5340008E9340008ED340008F134000804
:10006000F5340008F9340008FD34000801350008B3
:1000700005350008093500080D3500081135000860
:1000800015350008193500081D3500082135000810
:1000900025350008293500082D35000831350008C0
:1000A000353500088D330008393500083D35000826
:1000B00041350008453500089333000849350008EC
:1000C0004D350008513500085535000859350008F0
:1000D0005D35000899330008613500086535000872
:1000E000693500086D35000871350008F0B585B038
:1000F00050260B9D25B986F3118800F044FAFEE7DF
:100100000C9C24B986F3118800F03DFAFEE75C27C9
:100110000097DDF800E0BEF15C0F04D086F3118893
:1001200000F031FAFEE725630027022584F85950D4
:1001300004AE0A9D039702940196009500F034F8EE
:10014000204600F078F8049805B0F0BD2DE9F8439A
:100150000646174684B088469946B80000F070FB02
:1001600004001CD05C2000F06BFB050014D00021C3
:100170002C6385F85910039102950D990C98019103
:1001800000904B463A464146304600F00DF828466E
:1001900000F051F8012004E0204600F0D5FB4FF0BC
:1001A000FF3005B0BDE8F0832DE9F0470A9D804699
:1001B0000C461746286B9946A522B90000F012FCA0
:1001C000296B01EB8702171FFF08FF000021635C0A
:1001D0006A1882F83430605C10B1491C1029F6D3DB
:1001E000089E002085F84300372E88BF3726099CDB
:1001F000EE6205F14C0ACAF80400CAF80060281D36
:1002000000F01AFC05F1180000F016FC2D61C6F193
:100210003806AE616D620021CAF8081000208AF825
:100220000C004A464146384600F058FC286004B1AC
:100230002560BDE8F0872DE9F04100F068F8DFF8AF
:100240007855DFF87885E86C401CE8641426A86AC5
:1002500028BBAC62E86C012829D1002706FB07F017
:10026000404400F0DCFB7F1C382FF7D305F174000D
:1002700000F0D5FB05F18807384600F0D0FB284692
:1002800000F0CDFB05F1140000F0C9FB05F13800CA
:1002900000F0C5FB05F17400E8622F6307E0A86D6C
:1002A00028B9E06AAA6AD16A884228BFAC62AA6EFD
:1002B000E06A521C6264696D814238BF6865AA6653
:1002C0004643211D08EB060000F0B9FB00F077FC67
:1002D000A86D20B100F09DF901D200F04FF9BDE802
:1002E000F08180B580B1DFF8D024116F21B100F02A
:1002F0002FF900F048F9FEE7136F5B1C136700F05D
:1003000069FA00F044F808B900F038F901BD044674
:1003100000F03CBC80B586B000210591049103AA91
:1003200004A905A800F063FD059A04990292002033
:10033000019100900023039A0FF2FC410FF2653007
:10034000FFF7D4FE98B100F067FD5021012810D1CD
:1003500081F3118800F017F9DFF8C8044FF0FF317E
:10036000C166012282650021016500F0D5FB07B05E
:1003700000BD10F1010FFAD181F3118800F003F9EB
:10038000FEE7DFF8A014086F401C0867704770B5DF
:10039000DFF82464306F0024002520B900F043F812
:1003A00000F0F1F8FEE700F0F1FB306F401E30671F
:1003B000306F002836D1F06CD0B933E0F068C468F3
:1003C00000F035F800F0BFF9E36A706D984238BF6D
:1003D00073651422DFF850045343211D184400F0C4
:1003E0002EFBE06AB26AD16A884224BF01223266DB
:1003F00030680028E2D10CB100F08BF9F46D44B103
:1004000000F01DF808B101203066641EF8D100200C
:10041000F065306E30B1DFF814044FF080510125E3
:1004200000F0B0F8CCE1502181F31188704704F15D
:10043000180000F02ABBDFF8EC03006D70472DE9CF
:10044000F843DFF87463306F002500284FD1346D16
:10045000641C346510D1F06A006820B1FFF7E3FF37
:1004600000F091F8FEE7F16A306BF0623163706E74
:10047000401C706600F04DF9F06EDFF8AC838442EA
:100480004FF0140927D31FE0F16AC868C76878687D
:1004900084422AD3381D00F0F8FAB86A18B107F17F
:1004A000180000F0F2FAF86A716D814238BF706589
:1004B00009FB00F0391D404400F0C1FAF86AB26A45
:1004C000D16A884228BF0125F06A00680028DBD184
:1004D0004FF0FF31F166B06AC06A09FB00F958F8C5
:1004E0000910022906D3012504E0F066F3E7F06D58
:1004F000401CF065306E00B101252846BDE8F2834E
:1005000010B5DFF8B422106F10B10121116610BDD3
:100510001066DFF81443506D00E0401E142343437F
:10052000E15831B90028F8D100F012F800F02BF8AA
:10053000FEE7E1184B685C684C6001F108039C42DF
:1005400004BF64684C604B68D9689162506510BD07
:10055000502080F31188704710B50C4620B9FFF782
:10056000F7FF00F010F8FEE700F027F800F074FA4B
:100570002046BDE81040FFE701212BE1DFF8AC0287
:100580004FF080510160BFF34F8FBFF36F8F704703
:1005900038B50D46144620B9FFF7DAFFFFF7F3FF31
:1005A000FEE700F00AF800F04AFA0CB14FF0FF3510
:1005B00021462846BDE834400CE1DFF868329A6AEB
:1005C00002F11801704738B5C068C46824B9FFF754
:1005D000BFFFFFF7D8FFFEE7FFF729FFDFF8445220
:1005E000286F40B900F0AFF800F018F838BF6A651E
:1005F00000F0EAF802E004F11801284600F01FFAC2
:1006000000F007F803D201212966012032BD002045
:1006100032BDA96AE26AC86A90427047E26A686DB0
:1006200090427047DFF8FC21516E0160126D42600C
:100630007047F8B504460D46502024B980F3118860
:10064000FFF7A1FFFEE725B980F31188FFF79BFFB5
:10065000FEE700F09BFADFF8CC01D0F850C02B6821
:10066000616813F1010FACEB01020DD0466E2768F3
:10067000BE4201D08C450BD29A4207D29A1A2A6008
:10068000416E2160006D6060002402E0002028605F
:10069000012400F094FA2046F2BDDFF88801012120
:1006A0000166704770B5454CDFF8785111E000F0F5
:1006B0006DFA286AC668301D00F0E7F9E86C401E44
:1006C000E864686B401E686300F079FA304600F019
:1006D00009F8686B0028EAD12268022AF9D3FFF7EB
:1006E0004DFFF6E710B5044694F8590040B9206B69
:1006F00000F02AF92046BDE8104000F025B910BDF1
:100700000128F7D00228FAD0FFF722FFFFF73BFFBE
:10071000FEE72949C86A006818B94FF0FF32CA6677
:100720007047CA6AD068C2685068C8667047DFF808
:10073000F410886D08B901207047086F08B90220CD
:10074000704700207047201D00F09FB938B504465F
:10075000002134B3DFF8CC50A86A5022844204D080
:1007600082F31188FFF70FFFFEE7206D20B982F3B7
:100770001188FFF708FFFEE7E36AE26C401E934230
:1007800020650ED068B9FFF7DEFFE06CE062C0F1D3
:100790003800A061FFF742FF38BF6A6500F003F838
:1007A0000121084632BD1420DFF87C304243211D70
:1007B000981800F044B9000078180020340C00208C
:1007C00000F0FDF9284670BD1420174B4243211D4F
:1007D00098187047F8B5134E376D0C46B16A054648
:1007E000081D00F052F915F1010F05D124B1B06ACE
:1007F000011D06F138001BE0B06AED194560BD42ED
:10080000B06A05D2011D306BBDE8F44000F024B998
:10081000011DF06A00F020F9F06E854238BFF566E0
:10082000F1BD000078180020340C002004ED00E039
:10083000BDE8F44000F003B949444C450000000015
:100840002DE9F8430446FFF79CFD654FB8684FF06B
:100850000008002508BB07F1180307F1180013F082
:10086000070F4FF44062014605D0C11DC908C900F9
:10087000C1F54063C2185218083AD208D200396054
:100880007D60BA6055601560531A4B600A60486815
:100890003861F8604FF0004078614FF05009786996
:1008A000044241D1002C3FD0083414F0070F04D08B
:1008B00004F1080104F007000C1AACB3F868A04278
:1008C00032D33E68394601E0314606467068A042A0
:1008D00002D230680028F7D1B868864224D00A686E
:1008E0003068086002F108087268121B112A0CD3E4
:1008F000311911F0070002D000F01FF8FEE7301D9B
:1009000002517460084600F046F87168F8683A6968
:10091000401AF860904288BF1046386178690143F8
:100920007160356008F00705FFF731FD15B100F083
:1009300004F8FEE74046BDE8F28389F31188BFF36F
:100940004F8FBFF36F8F7047002800D1704738B5C5
:10095000A0F10804224D6368696950220B4204D15A
:1009600082F31188FFF7EBFFFEE7206820B182F3E6
:100970001188FFF7E4FFFEE78B436360FFF701FD9B
:10098000E96860684118E960204600F004F8BDE8B5
:100990003140FFF7FCBC30B511490A4600E01A4669
:1009A00013688342FBD35368D418844203D1406850
:1009B000C3185360104643681468C518A54208D18F
:1009C00089688C4204D06168CB184360246800E0D9
:1009D0000C460460824218BF106030BD0000000069
:1009E0001C00002062F30F2262F31F4200B500BF1B
:1009F000130096469446103928BFA0E80C50FAD848
:100A00005FEA417C28BF0CC048BF40F8042BC907EF
:100A100028BF20F8022B48BF00F8012B00BD4FF083
:100A2000FF3200F1080182604160C16000F10802FC
:100A3000026100210160704700210161704710B51B
:100A400042684A6094688C6093685960916008615C
:100A50000168491C016010BD30B50D6815F1010F2A
:100A600008BF046907D000F1080400E01C46636871
:100A70001A689542FAD262684A6091608C6061603F
:100A800008610168491C016030BD10B54268016908
:100A9000836893608268436853604C68844204BFF3
:100AA00083684B60002202610868401E0860086885
:100AB00010BD0EE002684368024408305FEAC37C60
:100AC00044BF4B445B1E52F804CB43F804CB091FD0
:100AD000F9D150F8041B0029ECD17047490810B532
:100AE0004900A0F10C034FF0807459609C600FF234
:100AF0000D01196040F8202D203810BD544A51686E
:100B0000502011F1010F80F31188BFF34F8FBFF315
:100B10006F8F00D0FEE7FEE71CB54E494C4C0878BD
:100B20000190FF230B7007200A788DF800209DF8B4
:100B3000002002F05002227005E09DF800205200D3
:100B4000401E8DF800209DF800301A06F5D4424270
:100B500012F1030F03D0A06000F050F8FEE700028E
:100B600000F4E060A060019808703B48026842F41D
:100B700070020260016841F07041016000F0DCFA2F
:100B80000020606000F01FFB002016BD502080F3A5
:100B90001188BFF34F8FBFF36F8F2D4A5168491CE7
:100BA000012951600AD12D4B1A68110606D080F335
:100BB0001188BFF34F8FBFF36F8FFEE77047244953
:100BC000486838B9502080F31188BFF34F8FBFF3C6
:100BD0006F8FFEE7401E486008BF80F311887047A2
:100BE00080B500F00BF8FFF72AFC18B11B484FF056
:100BF00080510160002282F3118801BD502080F3F2
:100C00001188BFF34F8FBFF36F8F7047EFF30582EB
:100C10005020102A0E490BD3114B9B5C0A7893424B
:100C200006D280F31188BFF34F8FBFF36F8FFEE7BB
:100C300089680C4B1A6802F4E062914206D280F394
:100C40001188BFF34F8FBFF36F8FFEE7704700002F
:100C50000000002000E400E020ED00E004ED00E0F2
:100C6000F0E300E00CED00E0EFF30580002804BFA6
:100C7000EFF31080002807D1DFF86411086802281C
:100C800003D1EFF3118000B180E0086810B90122B0
:100C90000A6070474FF0FF307047000080B500F0E9
:100CA000A2F804BFEFF31080002805D100F071F81E
:100CB00003D1EFF3118000B109E00A68012A05D1E0
:100CC00002200860FFF726FB002002BD02E06FF063
:100CD000050002BD4FF0FF3002BDF0B585B0002326
:100CE0000493EFF30583002B04BFEFF31083002B75
:100CF00049D1DFF8EC402368022B03D1EFF31183D5
:100D0000002B40D103003ED00023802518268DF80B
:100D10000C3003AC5AB3136803B11C4693691BB182
:100D20001E0004D0392E02D21779FB0701D500200E
:100D30002AE0536903B19D08D2F80CC0976887B1C7
:100D4000BCF15C0F1FD31269002A18BF002B1AD008
:100D500001920B46029700962A462146FFF7C6F9F4
:100D600010E0BCF1000F04BF1269002A0BD104ABE4
:100D7000019300960B46AAB22146FFF7E7F9012836
:100D800001D000200490049805B0F0BD6FF005007C
:100D90007047DFF84C1008680228704710B500F063
:100DA00015F804BFEFF31081002905D100F012F807
:100DB00005D1EFF3118111B16FF0050403E00024B8
:100DC00008B1FFF78EFA204610BD0025EFF305812C
:100DD00000297047024A116802297047000000008C
:100DE000441A00200446EFF3058000287047084BA2
:100DF000036003F15C000860802111607047054BBF
:100E0000036003F15C0008604FF48071116070476B
:100E1000F01400209410002010B586B000F058F9AE
:100E2000DFF8FC42A068C0B100220592049204A938
:100E300003AA05A8FFF7E3FF059A0499029202208E
:100E4000019100900023039A0FF2DC210FF2710050
:100E5000FFF74CF90028E06005D1502181F311889B
:100E600000F017F9FEE7012006B010BD2046BDE8EE
:100E7000F681F8B5044684B01E46002014B900F08F
:100E800005F9FEE7DFF89872BD68BDB1062900914B
:100E9000019202940CDAFFF74AFC022807BF0A9A73
:100EA000002300230022B868694600F021FA05E01B
:100EB000002332466946284600F0B1FA05B0F0BD7D
:100EC000F8B586B0964D2968086810B90124002647
:100ED00002E0C86806680024FFF753FA01A800F092
:100EE0009AF807460198002839D124BBB74227D386
:100EF000FFF74DFA2968C868C468201DFFF7C5FDD3
:100F0000E069012810D1A16933463A468919204683
:100F100000F0C4F840B100200090002332460021C8
:100F20002046FFF7A6FF18B1616A204688471FE0F8
:100F300000F0ACF8FEE769680868441EA441E40FBD
:100F4000A8682246F11B00F0EBFBFFF720FA78B906
:100F500074484FF08051016000F09BF808E0FFF703
:100F600016FA05E0034602460918204600F096F8F6
:100F7000A868002202A900F09AFA0028A3D00298DB
:100F8000002803D505990498039A904702980028F1
:100F9000EED4049C606910B1201DFFF776FD01A816
:100FA00000F039F802990929E2D8DFE801F01515B7
:100FB00015050E061515050EDAE794F82C00002825
:100FC000D6D12046FFF7C0FCD2E70399A1610029E2
:100FD000C8D100F05BF8FEE703990246A0690B4612
:100FE0004118204600F05AF80028C1D0616A204616
:100FF0008847E269012ABBD1002000900023039AB0
:10100000A069821800212046FFF733FF0028AFD1E6
:1010100000F03CF8FEE72DE9FC410646404DFFF7A5
:101020000AFA296904468C4209D3002030602C61F9
:101030001CE778603F61391D2868FFF70DFD2968BE
:101040000868E8B1C868D0F80080C768381DFFF7A5
:101050001CFD796A38468847F8690128EFD1B869DC
:1010600040448045E5D30020009000234246002103
:101070003846FFF7FEFE0028E1D100F007F8FEE752
:1010800068686960286001213160D0E7502080F3F2
:101090001188BFF34F8FBFF36F8F704738B50024AF
:1010A0008A42416000611E4D06D38169D21A8A428C
:1010B00006D2011D686807E09A4203D2994201D323
:1010C000012403E0011D2868FFF7C6FC204632BD5D
:1010D0001CB5FFF75BFD124CA068E0B904F11400E9
:1010E000FFF79DFC04F12800FFF799FC04F11402BE
:1010F00004F12801002022606160009004F13C03AB
:1011000004F18C0210210A2000F0AAF8A06010B1AE
:1011100007A100F0F0FABDE81340FFF750BD000052
:101120004C17002004ED00E0546D722053766300EC
:10113000546D7251000000000748084B0022026005
:10114000002181604FF47A711A68B2FBF1F1491EF7
:10115000416007220260704710E000E018000020A4
:10116000EFF30980BFF36F8F1D4B1A6820E9F00F72
:10117000106008B54FF0500080F31188BFF34F8F17
:10118000BFF36F8FFFF7BCF94FF0000080F31188B9
:10119000BDE8084019680868B0E8F00F80F30988D6
:1011A000BFF36F8F70470E4B19680868B0E8F00FF7
:1011B00080F30988BFF36F8F4FF0000080F3118830
:1011C0004EF00D0E704707480068006880F30888ED
:1011D00062B661B6BFF34F8FBFF36F8F00DF0000C1
:1011E000A018002008ED00E038B504000D4602D13B
:1011F00000F076F8FEE7FFF7C9FCE16B206C22688F
:101200004143501860600021A1632068E16BA06039
:10121000491E206C226841435018E06004F14401EB
:101220004FF0FF300870487075B92069A0B104F123
:101230001000FFF7C8F978B1DFF8DC044FF08051F7
:10124000016000F0B8F907E004F11000FFF7E7FBD8
:1012500004F12400FFF7E3FBFFF7B1FC012032BDEE
:101260007CB51C46502320B983F3118800F0A3F904
:10127000FEE724B983F3118800F09DF9FEE72AB157
:1012800029B983F3118800F096F9FEE771B950256A
:101290000095009E502E0ED134B1069B012584F896
:1012A0004650009400F00CF8204676BD83F3118878
:1012B00000F081F9FEE783F3118800F07CF9FEE786
:1012C00038B5049C1D4600290CBF24602260E063F1
:1012D000216420460121FFF787FF84F84C5031BD7F
:1012E000502080F31188BFF34F8FBFF36F8F70478B
:1012F0002DE9F64782B004461E46502714B900F087
:1013000058F9FEE75FEA010A01D1206C60B9022EAC
:1013100002D1E06B01280AD1FFF709FA50B903980E
:1013200040B100F046F9FEE700F043F9FEE700F0B7
:1013300040F9FEE7274600244FF08058DFF8D893A5
:101340002EE0039800284BD014B900F043F9012493
:10135000FFF735FCFFF715F8FFF718FC07F144001D
:1013600000F03BF904BF0021017000F02EF904BF2A
:1013700000214170FFF723FC00F04DF8002844D114
:10138000FFF704FCB96BF86B814214BF00250125FF
:10139000FFF715FC45BB384600F06EF9FEF7F7FF86
:1013A000FFF7F4FBB96BF86B814201D3022EC8D171
:1013B00032465146384600F017F9796A29B107F1EB
:1013C0002400FFF700F908B904E018B1C9F800805B
:1013D00000F0F1F8FFF7F3FB012004B0BDE8F0875F
:1013E000FFF7EDFB0020F8E7039907F11000FFF786
:1013F000B3F8384600F040F9FEF7C9FF0028CFD116
:10140000C9F8008000F0D7F8CAE7384600F034F990
:10141000FEF7BDFFE6E703A96846FFF70AB92DE925
:10142000F8430446884615461E46502714B900F076
:10143000C0F8FEE7B8F1000F01D1206C38BB022ED6
:1014400002D1E06B012825D1FFF7E0FBEFF3118912
:1014500000F0AFF8A16BE06B814201D3022E21D1E5
:1014600094F9457032464146204600F0BDF817F128
:10147000010F12D1606A98B104F12400FFF7A3F8BC
:10148000002818BF002D0BD00120286008E000F0D4
:1014900090F8FEE700F08DF8FEE77F1C84F84570B9
:1014A000012000E0002089F31188BDE8F2832DE9D6
:1014B000F74306460F460024502526B985F31188C8
:1014C00000F079F8FEE70FB9306C48B9FFF72FF953
:1014D00078B9029868B185F3118800F06CF8FEE7DE
:1014E00085F3118800F067F8FEE700F07BF8FEF75F
:1014F0004EFFFFF74BFBB56BDFF81C92002D4FF052
:10150000805832D10298002845D014B900F062F812
:101510000124FFF754FBFEF734FFFFF737FB06F11A
:101520004400425712F1010F04BF0021017000F086
:101530004CF804BF00214170FFF741FB02A9FFF7FF
:101540006BFF002830462AD100F0CAF80028CCD022
:1015500000F036F800F046F8FEF719FF0028C8D171
:10156000C9F8008000F027F8C3E73946304600F09C
:101570006FF86D1EB563306940B106F11000FFF7DA
:1015800022F818B1C9F8008000F015F8FFF717FB32
:101590000120BDE8FE83FFF712FB0020F9E700F011
:1015A0006BF8FEF7F4FE304600F09AF80028A0D061
:1015B000F3E787F31188BFF34F8FBFF36F8F704747
:1015C000029906F12400FEF7C7BF90F9012012F13D
:1015D000010F70476846FFF725B890F9002012F117
:1015E000010F7047304647E0F8B506461546B46B24
:1015F000326C002742B9306830BB7068FFF7A6F83C
:101600000021074671601FE065B9B06800F0ACF8D2
:10161000B168306C08447168B060884214D3306897
:10162000B06011E0F06800F09FF8306CF268404262
:101630000244F26031688A4202D272681044F0605B
:10164000022D01D104B1641E641CB4633846F2BD9E
:10165000026C002A0B4600D1704710B5C46841687F
:101660001444C4608C4224BF0468C460C168BDE8EF
:101670001040184600F078B8F8B50546FFF786FA2E
:1016800005F1440494F9016007E005F12400FEF738
:101690009AFF08B1FFF701F8761E70B2012802DB4D
:1016A000686A0028F1D14FF0FF366670FFF787FABD
:1016B000FFF76CFA94F9007007E005F11000FEF7EF
:1016C00082FF08B1FEF7E9FF7F1E78B2012802DB36
:1016D00028690028F1D12670BDE8F140FFF76FBA04
:1016E00010B50446FFF752FAA06B441EA441FFF761
:1016F00066FAE00F10BD10B50024084B53F83420F3
:101700001AB1641C082CF9D310BD43F8341003EB54
:10171000C401486010BD000004ED00E0EC19002099
:10172000F8B504460D461646FFF730FA04F13807BF
:1017300097F90C1011F1010F04BF0020387397F9CD
:101740000D1011F1010F04BF00207873FFF737FA75
:10175000386828B93246294604F12400FEF718FFFC
:101760002046BDE8F24087E74AB1000011F8013B8E
:10177000521E00F8013B1CBF11F8013BF8E770470F
:1017800038B5040001D1012032BD04F1400568786C
:1017900008B900F009F800F00CF800F022F8FFE7B3
:1017A000486100F010F832BD00212970204600F099
:1017B00083BA242068702168C86820F40050C8608B
:1017C000204600F01DBA2168C86840F40050C86087
:1017D0006A60202169702020A870002161630020C8
:1017E00070472168086920F4904008610022216850
:1017F000486920F02A007047036803F10C0252E8A0
:10180000002F0C33704743E80021002970472268FD
:1018100002F1140151E8001F143221F0400142E8A6
:1018200000100028F3D1E06B7047F8B50446226839
:10183000136811460846CD68466913F00F0F03F090
:10184000200105F0200007D1002918BF00285BD037
:101850002046BDE8F24073E1F70702D415F4907F0B
:1018600052D0DA0705D5ED0503D5626C42F00102CE
:1018700062645A0705D5F50703D5626C42F002028F
:1018800062649A0705D5F50703D5626C42F004023D
:1018900062641A0706D508B9F30703D5626C42F0F3
:1018A00008026264626C002A2DD000291EBF002845
:1018B000204600F045F920684069626C110701D4A8
:1018C00040061BD5204600F004F92068416948060F
:1018D0000FD5FFF79CFF60B10FF255214163E06B1C
:1018E00000F05CFA00280ED0E06B416BBDE8F440DC
:1018F00008472046BDE8F24000F0ACBA204600F0B0
:10190000A9FA00206064F1BD206B012804F14101B7
:1019100040F08880D80600D5EE0640F18380002391
:1019200000931268009223685A680092009B206816
:10193000426950063CD5E26B1068406880B20028CE
:10194000E1D0A38D9842DEDAE0859069202827D087
:10195000226802F10C0555E8002F206800F10C0305
:1019600022F4807200F09DF8F2D100F09EF8520847
:1019700000F11403520000F094F8F6D100F095F84D
:1019800000F1140322F0400200F08BF8F6D1202081
:1019900048700021216300F08FF8E06B00F0DAF965
:1019A00002206063A18DE08D091A89B2204635E0DE
:1019B000A38DE28DE08D9B1A00281CBF98B20028F1
:1019C0006ED02246156805F10C0454E8004F0C3522
:1019D00024F4907445E800400028F3D1156805F11F
:1019E000140454E8004F64081435640045E80040CE
:1019F0000028F3D12020487000211163146804F1FD
:101A00000C0151E8001F0C3421F0100144E80010D3
:101A10000028F3D10220506399B21046BDE8F4408B
:101A200000F019BA18062BD52A0629D508782128DE
:101A300036D1A068B0F5805F04BF2069002809D1C5
:101A4000226A21681088C0F308004860206A811C5F
:101A5000216205E0206A421C226221680078486009
:101A6000E08C401EE08480B2D0B92168C86820F0C4
:101A70008000C8602168C86840F04000C860F1BDBF
:101A800058060DD56A060BD52068C26822F04002C0
:101A9000C260204620220A70BDE8F24000F0DCB9A6
:101AA000F1BD43E8002000287047226802F11405C8
:101AB00055E8002F20687047226802F10C0151E8B8
:101AC000001F0C3221F0100142E800100028F3D171
:101AD0007047036803F10C0252E8002F0C3322F424
:101AE000907243E800210029F3D1036803F1140246
:101AF00052E8002F52081433520043E80021002915
:101B0000F3D1016B01290BD1036803F10C0252E8F8
:101B1000002F0C3322F0100243E800210029F3D1FA
:101B2000202280F84220002101637047000000005D
:101B3000406A0022C2850021C18400F08BB90000F8
:101B40001CB590F84210222958D18168826AB1F5FB
:101B5000805F0AD1016969B903685968C1F3080156
:101B60001180826A911C81620FE0002904BF016923
:101B7000002902D10368596803E00168496801F04F
:101B80007F011170816A4A1C8262C18D491EC18524
:101B900089B289BB0268D16821F02001D16000239D
:101BA0000168CA6822F48072CA60026851694908F3
:101BB00049005161202280F842204363016B0129D2
:101BC00018D100220263FFF717FE22F01002FFF780
:101BD0001AFEF8D101680A68D30607D500220092E0
:101BE0000B680093046862680092009B818D00F08E
:101BF00032F901E000F031F9002016BD022016BDD7
:101C000010B5044622681169E06821F4405101438F
:101C10001161D3681948A168034020690B436169C9
:101C200003430B43D36016495369A06923F44073FF
:101C300003438A42536102D100F040FB01E000F00F
:101C400035FB6268192148439200B0FBF2F264212F
:101C5000B2FBF1F16FF0630000FB0122120132329E
:101C60006423B2FBF3F000F0F00202EB01122168F2
:101C700000F00F008018886010BD0000F3E9FFFF3E
:101C80000038014000224FF4964180B52C48826014
:101C9000C26041604FF4806202610C21294B0360F5
:101CA000002241618261C261FFF76AFD18B1BDE89F
:101CB000014000F09DBB01BD18B585B00446102160
:101CC0000022684600F096FB23681E498B4235D1FE
:101CD0001D481E4C026842F480420260016801F413
:101CE00080410491049A016841F0080101600222D8
:101CF000006800F00800049040200499009003213F
:101D0000039101926946204600F07EFB80200090FE
:101D10000022019202926946204600F075FB0C49B0
:101D2000086840F0E06040F00400086000220521EF
:101D3000252000F070FC252000F08CFC06B010BDC2
:101D4000A41900200038014018100240000C014086
:101D50000400014090F82130022B00F1380206D037
:101D600004211160002280F82020012070470168C2
:101D70000B6823F00E030B600368196849084900DB
:101D800019600123916852688B4053600021012340
:101D900080F8213080F820100020704738B590F886
:101DA00021200024022A00F1340103D004204860DD
:101DB00001243EE00268136823F00E0313600368F9
:101DC0001A68520852001A60DFF86C3002689A42B2
:101DD00008BF012322D0DFF864309A4208BF1023E5
:101DE0001CD0DFF85C309A4208BF4FF4807315D0E6
:101DF000DFF850309A4208BF4FF480530ED0DFF81E
:101E000048309A4208BF4FF4803307D0DFF83C30A7
:101E10009A420CBF4FF480134FF08073DFF83020EC
:101E20001360012580F8215080F82040096801B135
:101E30008847204632BD0000080002401C000240D6
:101E40003000024044000240580002406C00024052
:101E50000400024070477047704770472DE9F8430F
:101E6000040016D02078DFF8A074C10713D5786875
:101E700000F00C00042807D0786800F00C00082857
:101E800040D17968C8033DD53A68910303D56068AD
:101E9000002800F05B812078DFF87C64810719D589
:101EA000786810F00C0F07D0786800F00C00082854
:101EB0005FD17868C1035CD43868810703D5206995
:101EC000012840F043813968606921F0F80141EA56
:101ED000C00139602178080778D5A069DFF83C1483
:101EE000002800F09E8001220A6000F0C7FB054632
:101EF000796A88075BD400F0C1FB401B0228F7D940
:101F0000032026E16068B0F5803F03D1386840F4D3
:101F1000803013E058B1B0F5A02F08D1386840F4F4
:101F2000802038603A6842F480323A6007E03968CD
:101F300021F480313960386820F48020386060688E
:101F400058B100F09BFB054639688803A3D400F024
:101F500095FB401B6528F7D3D2E700F08FFB0546C1
:101F60003968880397D500F089FB401B6528F7D3B3
:101F7000C6E7206968B10121316000F07FFB0546AA
:101F8000386881079FD400F079FB401B0228F7D9FD
:101F9000B6E70022326000F071FB05463968880719
:101FA00098D500F06BFB401B0228F7D9A8E7DFF8B3
:101FB0005C231168C9084FF47A70B1FBF0F000900F
:101FC00000BF0098411E00280091F9D120784107F8
:101FD0006ED5F9690025C80009D4F96941F080512E
:101FE000F9610125F86900F0805000900098DFF851
:101FF0003083D8F80000C10520D4D8F8000040F4A0
:102000008070C8F8000000F039FB8146D8F8001055
:10201000C80513D400F032FBA0EB09006528F5D306
:102020006EE7086000F02AFB0546796A8807CDD57F
:1020300000F024FB401B0228F7D961E7E068012883
:1020400008D008B9386A09E00528386A06D140F096
:1020500004003862386A40F0010005E040084000A2
:102060003862386A20F00400386241F28938E0684A
:1020700060B100F003FB8146396A880713D400F091
:10208000FDFAA0EB09004045F6D339E700F0F6FA77
:102090008146396A880706D500F0F0FAA0EB0900FE
:1020A0004045F6D32CE71DB1F86920F08050F86167
:1020B000E06900284CD0796801F00C01082938D07B
:1020C00002282AD100F047F805463968880105D56D
:1020D00000F0D4FA401B0228F7D911E7206AB0F5C6
:1020E000803F05D17968A06821F40031014379600F
:1020F0007A68206A616A22F4741202430A437A60A1
:10210000012000F029F804463868810120D400F04D
:10211000B5FA001B0228F7D9F2E600F01CF80446D5
:102120003868810114D500F0A9FA001B0228F7D9FC
:10213000E6E601280AD07868226A00F480319142EC
:1021400002BF00F47010616A884201D0012000E0F3
:102150000020BDE8F2830020306600F08FBA2DE940
:10216000F041040088465FD06E4E306800F00700F2
:10217000404509D23168C90848EAC1013160306878
:1021800000F0070040454FD121685F4D880712D508
:10219000490703D5686840F4E0606860207801076B
:1021A00003D5686840F4605068606968A06821F0F1
:1021B000F001014369602178C80726D560680128CD
:1021C00002D129688A0303E0022803D129688A0121
:1021D00003D429E02B68990726D56A68920840EA5B
:1021E0008200686000F04AFA07466868616800F09B
:1021F0000C00B0EB810F08D000F040FAC01B41F298
:1022000089318842F1D3032032E0316801F00701BF
:1022100088450BD23068C00848EAC0003060316899
:1022200001F00701414501D0012021E02178480754
:1022300005D56968E06821F4E061014369602178AF
:102240000A0706D56868216920F4605040EAC10099
:10225000686000F00FF86A683349C2F303128B5CC0
:102260002A49D84008602B48006800F00DFA002089
:10227000BDE8F0812D4926480A6802F00C03082BBE
:1022800000D0704710B500BF2BA4C2F38343D20324
:10229000E35C08D5096858432BA3C1F34041595C5E
:1022A000B0FBF1F010BD2248584310BD17481F4B3A
:1022B00000681A681F49C2F3022206E013481B4B4C
:1022C00000681A681B49C2F3C222895CC840704783
:1022D00010B50F220260154A136803F00303436030
:1022E000146804F0F0048460136803F4E063C360CE
:1022F0001268D20802F4E06202610A4A106800F033
:102300000700086010BD0000001002401800002007
:1023100000127A0014000020000042428004424271
:102320000070004000200240803400080410024089
:1023300000093D00CC340008020304050607080923
:102340000A0B0C0D0E0F10100102000080B500F0FA
:10235000E9F900F00FF800F0F7F900F079FAFFF76B
:1023600091FC00F08BFAFEF77FFC00F0DBFAFEF741
:1023700095FCFEE700B58FB02821002205A800F0EB
:1023800039F814210022684600F034F8092105913B
:1023900001224FF48031069109920B920D91002396
:1023A00002224FF4E01107930C920E9105A8FFF75B
:1023B00055FD08B100F01CF8022201920F20002107
:1023C000009002914FF480620491039202216846CA
:1023D000FFF7C5FE08B100F00BF80FB000BD0168B3
:1023E0000248814208BF00F097BC704700080040D7
:1023F00072B6FEE74018491C1CBFB1F1010100F89C
:10240000012DF9D1704700002DE9F84F0027002475
:10241000684BDFF8A481DFF8A491DFF8A4B14FF096
:102420000F0A024610E0D3F800E000EA0E00186040
:1024300009E0C3F804C04D68ED03F4D518684EEA0E
:10244000000EC3F800E07F1C0D6835FA07F000F0BD
:10245000AB80012000FA07FC0CEA050EE645F2D13C
:102460004D683DB3012D1AD0022D1DD0032D2ED065
:10247000112D16D0122D1AD0524885421CBF524839
:10248000854217D0514885421CBF5148854211D022
:10249000504885421CBF504885420BD018E0CC689C
:1024A00016E0CC68241D13E0CC68083410E0CC683A
:1024B0000C340DE0886808B9042409E0012819BF2C
:1024C0000824C2F814C00824C2F810C000E0002498
:1024D000BEF5807F03D210464FEA870C04E0A7F1D7
:1024E0000805101D4FEA850C06680AFA0CF5AE4384
:1024F00004FA0CF545EA060CC0F800C04868C000B4
:10250000A1D5D9F800C04CF0010CC9F800C0BD003D
:10251000D9F8000000F00100009005F00C0C0098C4
:10252000B80858F820600AFA0CF5AE435A4508BFBF
:1025300000250ED0294DAA4208BF012509D0284DFB
:10254000AA4208BF022504D0264DAA420CBF03258B
:10255000042505FA0CF545EA060C48F820C06FEA98
:102560000E004D68ED0204D59D684EEA05059D609C
:1025700005E0D3F808C000EA0C0CC3F808C04D68A9
:10258000D3F80CC0AD024CBF4EEA0C0C00EA0C0CA8
:10259000C3F80CC04D68D3F804C0AD034CBF4EEA7D
:1025A0000C0C00EA0C0C44E7BDE8F18F02B90904F9
:1025B000016170470004014008000140181002400A
:1025C000000801400000111000001210000021104E
:1025D000000022100000311000003210000C0140F9
:1025E00000100140001401400A01010002D41F4BF9
:1025F0005A5470471E4801F00F01014401F8042CA1
:1026000070471C490A6860F30A2240F2FA5060F3EE
:102610001F420A60704770B5164C2368C3F302234B
:102620000124C3F10705052D2FBF0F26C3F10706AF
:1026300004FA06F6761E1D1D072D34BF0023DB1E8F
:102640003140994004FA03F3BDE870405B1E1A4024
:102650001143C9E7010007D4012200F01F01064B16
:102660008A40400943F820207047000000E400E061
:1026700018ED00E00CED00E000E100E001484068EA
:10268000704700BF0C00002078B50446204887B092
:10269000016841F00401016001A9006800F0040034
:1026A000009002A8009AFFF713FE059810B9FFF7F3
:1026B000FDFD02E0FFF7FAFD40001649164D174BED
:1026C0002B60B0FBF1F1002040F2E732491E286197
:1026D000A860A861EA606960284600F025FB060052
:1026E00012D1284600F02DFB06000DD11E20FFF769
:1026F000B1FF102C07D2002221461E20FFF78BFFCE
:102700000748046000E00126304608B070BD0000B4
:102710001C10024040420F00141900200008004025
:102720001400002080B50748016841F010010160E5
:102730000320FFF766FF0F20FFF7A6FF00F0C2FCA3
:10274000002002BD00200240F0B585B0102100221B
:102750006846FFF74FFE3748374F0268374C384D11
:1027600042F0100202604FF60646016801F01001C7
:102770000491049B026842F020020260016801F0AB
:1027800020010491049B026842F004020260016887
:1027900001F004010491049A016841F0080101600C
:1027A0000122006800F0080004904FF400510498E2
:1027B0003846FFF7FBFE002231462046FFF7F6FEC3
:1027C00000224FF4F8512846FFF7F0FE1122019243
:1027D0004FF40050002100900291022203926946BA
:1027E0003846FFF711FEFC2000900022019200F015
:1027F00029F8312000900022019202926946204679
:10280000FFF702FE012201920021029102220392AF
:10281000009669462046FFF7F7FD4FF4F850009008
:102820000121022001910022039000F00BF805B075
:10283000F0BD00001810024000100140000C0140E3
:1028400000080140029269462846FFF7DDBD0000FE
:1028500080B50848084B032240F6FF7103604260D0
:10286000816000F055FC18B1BDE80140FFF7C0BD24
:1028700001BD00BF381A00200030004010B586B0FE
:102880001021002202A8FFF7B5FD0021009101915F
:102890004721214C214A61600020A0604CF2503158
:1028A00020616061A0612260E160204600F03CFA96
:1028B00008B1FFF79DFD4FF48050029002A9204619
:1028C00000F032FB08B1FFF793FD0020009001906B
:1028D0006946204600F046FC08B1FFF789FD06B0C6
:1028E00010BD01680D48814200D0704780B50C488A
:1028F000016841F4006101600022006800F400609A
:1029000000900521009B1920FFF785FEBDE80240DD
:102910001920FFF79FBE00005C190020002C014029
:102920001810024038B5DFF8B0430FF235002246E8
:102930000021DFF8A853FEF7D0F9286004F1240243
:1029400000210FF22900FEF7C8F9686004F148027F
:1029500000210FF22500FEF7C0F9A86031BD00008C
:1029600080B50120FEF71AFAFBE7000080B50120D0
:10297000FEF714FAFBE700002DE9F84F84B04FF49E
:10298000FA70FEF70BFA0FF29C2BA7A5A7A6A8A733
:102990000FF2A0280FF26C39DFF844A363E000F0D7
:1029A00073F9484600F086FC00F057F900F05DF935
:1029B00000F05FF90121C42000F01AFC404600F04D
:1029C00079FC00F04AF99CA000F074FC00F051F989
:1029D0009AA000F06FFC00F053F999A000F06AFC97
:1029E00000F037F90FF2243000F064FC00F041F9F8
:1029F0000421012000F041FC31E000F045F9A4A0E1
:102A000000F058FC00F021F900F02BF900F035F946
:102A100000F018F99FA000F04DFC0121BC2000F04F
:102A2000E7FB0121BE2000F0E3FB00F00BF900F012
:102A300027F999A000F03EFC00F017F900F00DF91D
:102A4000304600F037FC00F0FDF894A000F032FCB6
:102A500000F007F9304600F02DFC00F0F3F84FF4D9
:102A6000AF70FEF79BF99AF800000628F7D8DFE868
:102A700000F007446891A1060500F0E78FE7BCE786
:102A800000F002F9584600F015FC00F0F2F884A0BE
:102A900000F010FC00F0EDF882A000F00BFC01212A
:102AA000BC2000F0A5FB00BF8EA000F003FC00F0EE
:102AB000D0F800F0E2F800F0E3F80121A92000F0DE
:102AC00097FB0121E32000F093FB77A000F0F2FBDD
:102AD0000121B62000F08CFB84A000F0EBFB00F09D
:102AE000C8F872A000F0E6FB0121B92000F080FBDD
:102AF00000F0B7F800F0B9F8B1E7E0B210B100F0BB
:102B0000C4FB002400F0C0F80121A42000F070FBF9
:102B100000F0B3F80121E32000F06AFB00F0ADF80B
:102B200000F09BF800F0A1F861A000F0C3FB00F0FA
:102B300089F80121EF2000F05BFB584600F0BAFB5A
:102B40008DE700F0A1F85BA000F0B4FB00F07AF88C
:102B500059A000F0AFFB00F075F858A000F0AAFBF8
:102B600000F070F800F08CF80121A12000F040FB8B
:102B700000F07BF852A000F09DFB00F07AF83046A0
:102B800000F098FB00F05EF80121EF2000F030FB30
:102B900058A060E700F078F800F05BF800F06DF8FE
:102BA00000F067F800F051F800F05FF800F059F815
:102BB0002846C3E700F068F80121B12000F018FBB7
:102BC00040A000F077FB00F04CF8284600F072FBC4
:102BD00000F038F849A000F06DFB00F036F83AA09C
:102BE00000F068FB00F03DF800F02CF800F048F829
:102BF00036A000F05FFB0121B32000F0F9FA00F0ED
:102C000038F833A000F056FB0121B72000F0F0FAAD
:102C100000F033F80121BE2000F0EAFA2DA000F008
:102C200049FBC3E7430000002D0000003A0000000C
:102C3000610000002000000061630000702E0000B1
:102C400020200000684600F035BB0121C02000F0C4
:102C5000CFBA0121E02000F0CBBA0121BD2000F065
:102C6000C7BA0121BA2000F0C3BA0121B82000F090
:102C7000BFBA0121BF2000F0BBBA384600F01ABB32
:102C80000021012000F0F9BA0021002000F0F5BA7F
:102C9000546F0000205465004D0000002043650083
:102CA000617000007965000065700000706F0000C1
:102CB000653A200050000000204900002044000038
:102CC000630000007000000065000000410000008B
:102CD0006F00000079630000DC3200082C1A00202D
:102CE000481A00203F204B6F702D00002E2D4861A8
:102CF0006300000043204469722D00002520546FBA
:102D000000000000436F7870610000006120202007
:102D10002020204865000000024A516810784118C0
:102D2000516070470C00002038B5040001D101202B
:102D300032BD00F04BF818B900F044F8FFF7D1FDB0
:102D40002CE090F83D10012901D0012070470221AC
:102D500080F83D100268D16841F00101D160DFF8D0
:102D600074200168914218BFB1F1804F07D0DFF89D
:102D7000683099421CBFDFF86420914206D189680F
:102D800001F00701062907D0026800E00A46116831
:102D9000104641F001010160002070470220687078
:102DA000211D206800F01FF90121A9720120A870DF
:102DB000E97028716971A871E97128726972687087
:102DC000002032BD002129702046704704F13C05E7
:102DD00068787047002C0140000400400008004063
:102DE00010B5044620680269910715D5C26891079D
:102DF00012D56FF00202026101212177806910F083
:102E0000030F204602D000F063FA03E000F061FAFD
:102E100000F087F80020207720680269510715D557
:102E2000C268510712D56FF00402026102212177B6
:102E3000806910F4407F204602D000F049FA03E098
:102E400000F047FA00F06DF8002020772068016953
:102E50000A0715D5C1680A0712D56FF0080101618C
:102E600004222277C06910F0030F204602D000F040
:102E70002FFA03E000F02DFA00F053F8002020773D
:102E800020680269D10615D5C268D10612D56FF047
:102E90001002026108212177C06910F4407F2046AA
:102EA00002D000F015FA03E000F013FA00F039F850
:102EB0000020207720680169CA0708D5C168CA07C1
:102EC00005D56FF0010101612046FFF788FA2068FF
:102ED00001690A0608D5C1680A0605D56FF08001A8
:102EE0000161204600F0F6F920680269510608D514
:102EF000C3685A0605D56FF040010161204600F015
:102F0000EAF9206801698A060AD5C1688A0607D5E8
:102F10006FF0200101612046BDE8104000F0DCB9EF
:102F200010BD204600F0D9B970B5044604F13C0646
:102F300000253078012801D1022070BD01223270B5
:102F4000022070702368DFF8FC009A6802409A60E3
:102F50000868020018BF102830D0202818BF302879
:102F60002CD0402826D0502819D060281BD070289B
:102F700006D0B0F5805F27D0B0F5005F07D022E023
:102F800000F02CF82168886840F0770005E000F038
:102F900025F82168886840F48040886014E000F0DB
:102FA00019F850210BE0CA684968206800F065F8FC
:102FB000602104E000F00EF8402100E001462068A6
:102FC00000F06DF800E001250121717000203070E3
:102FD000284670BDCA68496820683DE0CB684A68E9
:102FE0008968206863E070B50368174C174E184A6B
:102FF000A04218BFB0F1804F03D0904218BFB0423A
:1030000009D123F070054B682B43A0421CBFB0F1DF
:10301000804F904201D0B04203D123F44072CB687C
:1030200013434A6923F0800313430360A0428B6873
:10303000C3620A68826202D10A6906490A600123F2
:10304000436170BD8800FFFF002C01400008004074
:1030500000040040302C014010B5036A046A640883
:103060006400046223F00A03846924F0F00444EA53
:10307000021484611943016210BD10B5036A046A29
:1030800024F01004046223F0A003846924F4704443
:1030900044EA0234846143EA0113036210BD82688A
:1030A00022F07002114341F007018160704710B5B2
:1030B000846824F47F442143114341EA0321816061
:1030C00010BD000080B51048026842F001020260A5
:1030D000016801F001010091009A416841F08051BE
:1030E00041600022406800F0805000900F21009B5A
:1030F0006FF00100FFF78FFA044A1068022161F3B4
:103100001A60106001BD00BF1810024004000140A9
:1031100038B5040001D1012032BD20684CF6CC4303
:10312000036045F25551016062684260A1688160A8
:10313000FFF7A4FA05462068C16811F0030F0BD011
:10314000FFF79CFA401B2828F5D32168C86810F0C7
:10315000030FF0D0032032BD4AF6AA2101600020FF
:1031600032BD000070B500F13C031A78012A01D18C
:10317000022070BD01241C7002225A700668756816
:10318000B4680A6825F070051543756002680C483C
:10319000824218BFB2F1804F05D0084DAA421CBF31
:1031A0000848824204D1486824F0800404439460B3
:1031B000012159700020187070BD0000000400400B
:1031C000002C01400008004010B5354C00F06CF8B0
:1031D0000120FDF7E3FD012200F067F80120FDF773
:1031E000DDFD00F061F8BDE810400120FDF7D6BD1F
:1031F000F8B504460F462B4D04F0800200F038F875
:1032000004F040024FF4806100F034F804F0200232
:103210004FF4007100F02EF804F010024FF48071AA
:1032200000F028F81E4E00F01DF8FFF7CDFF04F067
:10323000080200F01DF804F004024FF4806100F071
:1032400019F804F002024FF4007100F013F804F0D2
:1032500001024FF4807100F00DF800F003F8BDE8B2
:10326000F140B1E7FAB24FF480413046FFF79EB922
:103270004FF400612846FFF799B90A4608B142F0B9
:103280004002002142F08000B2E780B50021012019
:10329000FFF7AEFFBDE8044000210220A8E70000D0
:1032A000000C01400008014000224FF4004120467C
:1032B000FFF77CB910B5044604E014F8010B0121B6
:1032C000FFF796FF002C1CBF20780028F5D110BD19
:1032D000704770477047704770477047C0340008A8
:1032E00000000000000000000000000000000000DE
:1032F00000020000180000000000000000000000B4
:1033000090340008000000000000000000000000F1
:1033100000000000000200001A0000000000000091
:1033200000000000A03400080000000000000000C1
:103330000000000000000000000200000800000083
:10334000000000000000000030B4002412E050F83B
:10335000043BDA0744BF4B445B1E091F042943F8B2
:10336000044BFAD21A468D0744BF1C80921CCB072F
:1033700048BF147050F8041B0029E8D130BC7047D6
:10338000FEE7FEE7FEE7FEE7FEE770470448FFF7CB
:1033900027BD0448FFF724BD0348FEF746BA0000E6
:1033A0005C19002014190020A419002010B5034A4C
:1033B0007A440832024C7C44A41D03E01C00000047
:1033C0003C00000004E01168101D114488470246CB
:1033D000A242F8D110BD000071FFFFFF301A0000BB
:1033E0001C00002000000000CBD6FFFF1C000000E6
:1033F00070000000000000200000000000F00DF848
:10340000002801D0FFF7D2FFAFF300800020AFF318
:103410000080FEF79BFF00F002F80120704700F0EB
:1034200001B800000746384600F002F8FBE700004C
:1034300080B5AFF30080024A11001820ABBEFBE755
:10344000260002000548014603B4684680F3098857
:10345000AFF30080AFF30080FFF7D0FFA5EDF5FEDE
:1034600000000000AAAAAAAA0000000001000000B3
:1034700000000000100000000024F400704700006D
:103480000000000000000000010203040607080914
:10349000427574746F6E50726F63657373696E00FA
:1034A0004C454450726F63657373696E670000002A
:1034B00001488047014800477D3400084534000832
:1034C0006D61696E5461736B0000000000000000C4
:1034D00001020304FFF7FEBFFFF7FEBFFFF7FEBFC9
:1034E000FFF7FEBFFFF7FEBFFFF7FEBFFFF7FEBF10
:1034F000FFF7FEBFFFF7FEBFFFF7FEBFFFF7FEBF00
:10350000FFF7FEBFFFF7FEBFFFF7FEBFFFF7FEBFEF
:10351000FFF7FEBFFFF7FEBFFFF7FEBFFFF7FEBFDF
:10352000FFF7FEBFFFF7FEBFFFF7FEBFFFF7FEBFCF
:10353000FFF7FEBFFFF7FEBFFFF7FEBFFFF7FEBFBF
:10354000FFF7FEBFFFF7FEBFFFF7FEBFFFF7FEBFAF
:10355000FFF7FEBFFFF7FEBFFFF7FEBFFFF7FEBF9F
:10356000FFF7FEBFFFF7FEBFFFF7FEBFFFF7FEBF8F
:04357000FFF7FEBFA4
:040000050800344576
:00000001FF
